:100000000C946E030C948B030C948B030C948B0355
:100010000C948B030C948B030C948B030C948B0328
:100020000C948B030C948B030C94EC170C946E15AE
:100030000C9447280C948B030C948B030C948B0327
:100040000C948B030C948B030C948B030C948B03F8
:100050000C948B030C9429120C948B030C948B033B
:100060000C948B030C948B030C948B030C948B03D8
:100070000C948B030C948B030C948B030C948B03C8
:100080000C948B030C948B030C948B030C948B03B8
:100090000C948B030C948B030C948B030C948B03A8
:1000A0000C948B030C948B030C948B0300010101C3
:1000B0000101010101010202020202020202020325
:1000C00003030303030303040404040404040505F5
:1000D00005050506060606060707070707080808B8
:1000E00008090909090A0A0A0B0B0B0C0C0C0D0D67
:1000F0000D0E0E0E0F0F0F101011111112121313FF
:100100001414151516161717181819191A1A1B1B77
:100110001C1D1D1E1E1F20202122222324242526D3
:1001200026272829292A2B2C2D2D2E2F303132320B
:10013000333435363738393A3B3C3D3E3F40414217
:10014000434445464748494A4C4D4E4F50515354FD
:10015000555658595A5B5D5E5F61626465666869B1
:100160006B6C6D6F7072737577787A7B7D7E808231
:10017000838587888A8C8E8F91939596989A9C9E7A
:10018000A0A2A3A5A7A9ABADAFB1B3B5B7BABCBE8A
:10019000C0C2C4C6C9CBCDCFD1D4D6D8DBDDDFE257
:1001A000E4E7E9EBEEF0F3F5F8FAFDFFFFAA7F557F
:1001B000402223252628292A2C2D2F30323335366C
:1001C000383A3B3D3E4042434547494A4C4E5051E8
:1001D000535557595A5C5E6062646668696B6D6F0F
:1001E00071737577797B7D7F81838587898A8C8E12
:1001F00090929496989A9C9E9FA1A3A5A7A8AAAC1A
:10020000AEAFB1B3B4B6B8B9BBBCBEBFC1C2C3C553
:10021000C6C7C9CACBCCCDCED0D1D2D2D3D4D5D6F5
:10022000D7D7D8D9D9DADADBDBDBDCDCDCDCDCDD28
:10023000DDDDDDDCDCDCDCDCDBDBDBDADAD9D9D80C
:10024000D7D7D6D5D4D3D2D2D1D0CECDCCCBCAC9A4
:10025000C7C6C5C3C2C1BFBEBCBBB9B8B6B4B3B1D3
:10026000AFAEACAAA8A7A5A3A19F9E9C9A9896946E
:1002700092908E8C8A89878583817F7D7B79777543
:1002800073716F6D6B6968666462605E5C5A595722
:10029000555351504E4C4A4947454342403E3D3BE1
:1002A0003A3836353332302F2D2C2A29282625236B
:1002B000224A004D642961D75C350000001E0014FD
:1002C0000004001D0034004B001F001A0016001B24
:1002D000002E002A42200008000700060050002CD3
:1002E0004121001500090019004F00035322001797
:1002F000000A00050000004C001507015300002E05
:10030000650000E30017070253000025630000E7C3
:100310000023001C000B00110000004900240018FD
:10032000000D0010005200010025000C000E0036E8
:100330000051002841260012000F0037002F002B2B
:1003400042270013003300380030004E002D0031EA
:10035000743471D85C2D020000010001000100011D
:1003600000010000003A001E0220022202010001EA
:10037000003B001F0221022302010001003C002F6C
:100380000226022F00010001003D0030022702304A
:1003900000010001003E003102350035020000017D
:1003A0000001000100000001000000010001000147
:1003B0000000000100000001003F00520051002435
:1003C00002000001004000240021001E0001000185
:1003D000004100250022001F0037000100420026D6
:1003E000002300200027000100430025022E0238D0
:1003F000002E000100440045000100010001000042
:1004000000010001000100010001000000010001E5
:100410000001000100010001000100010050000185
:100420000001000100010052005100010001000123
:1004300000010001004F0001000100010001000166
:1004400000010001000000010001000100000001A6
:100450000000000100010001000000010000000197
:10046000000100B60001000100000001000100F4DD
:1004700000F2000100010001000100F000F10001A4
:1004800000010001000100F500F30001000100017E
:10049000000100B70001000100010001000100019E
:1004A0000001000100010000000100010029080115
:1004B00000350000000100010001000100340101CD
:1004C0000001000100010001000100010001000124
:1004D0000001000100010001000100010001000114
:1004E0000001000100010001000100010000000105
:1004F00000010001000000010000000100010001F6
:1005000000000001000000010001000100010001E5
:1005100000000001000100010001000100010001D4
:1005200000010001000100010001000100010001C3
:1005300000010001000100010001000100010001B3
:100540000001000100010001003418010001000059
:100550000000047F3F1F643214643214783C1E1E76
:10056000140A0505010902A10185020901A100057E
:1005700009190129051500250195057501810295C7
:1005800001750381010501093009311581257F9528
:10059000027508810609381581257F950175088146
:1005A00006050C0A38021581257F9501750881061C
:1005B000C0C005010980A10185031A81002A8300BA
:1005C000160100260300950175108100C0050C0975
:1005D00001A10185041A01002A9C02160100269C33
:1005E00002950175108100C005010906A10185056C
:1005F000050719E029E71500250195087501810215
:100600000507190029EF1500250195F075018102F4
:1006100005081901290595057501910295017503D4
:100620009101C005010906A101050719E029E71597
:100630000025019508750181029501750881010564
:1006400007190029FF150026FF009506750881008F
:100650000508190129059505750191029501750394
:100660009101C009023B00020100A0FA0904000048
:1006700001030101000921110100012240000705C9
:10068000810308000A090401000103000000092198
:100690001101000122C0000705820320000A120197
:1006A000100100000008EDFE071301000102030124
:1006B00004033000000016034500720067006F005D
:1006C00064006F007800200045005A000000080315
:1006D0005A005300410000000403090411241FBE06
:1006E000CFEFDAE0DEBFCDBF11E0A0E0B1E0E0E6A1
:1006F000F6E502C005900D92AE3EB107D9F723E0B2
:10070000AEEEB1E001C01D92A537B207E1F70E943D
:1007100019250C94EF2A0C940000E8EDF0E080819C
:100720008E7F80831092E2001092DA001092E10036
:10073000A0EEB0E08C9181608C9380818F77808374
:1007400019BCA7EDB0E08C918E7F8C9380818F7E59
:1007500080831092400308952091E4003091E500D9
:1007600095E6A9012091EC00822F817020FF06C040
:100770008091E80080FF06C080E008952091E800A5
:1007800022FD1AC080916703882389F0853089F0A3
:100790008091EB0085FD0FC02091E4003091E500D1
:1007A00042175307F9F29150E1F684E0089582E090
:1007B000089583E0089581E00895EF92FF920F93EA
:1007C0001F93CF937C018B010E94AC03C82F811132
:1007D00017C08091E80085FD0BC08091E8008E77FE
:1007E0008093E8000E94AC03882399F3C82F08C0C7
:1007F000F70181917F018093F1000150110949F7C0
:100800008C2FCF911F910F91FF90EF9008958091C1
:10081000690387FF13C08091E80082FF06C08091C2
:10082000E8008B778093E80004C080916703811112
:10083000F2CF0895809167038823D9F38091E8006F
:1008400080FFF8CF8091E8008E77ECCF982F9093BF
:10085000E900242F762F50E0891731F07091EC00D9
:100860002091ED005091F00021FD07C09F5F97306F
:1008700071F78093E90081E008953091EB003E7FAD
:100880003093EB003091ED003D7F3093ED003091DF
:10089000EB0031603093EB007093EC002093ED009F
:1008A0005093F0002091EE0027FDE0CF80E0089506
:1008B000CF92DF92EF92FF920F931F93CF93DF932C
:1008C000C8EDD0E088818F7E8883E7EDF0E08081FD
:1008D0008160808384E082BF81E0809340038881CF
:1008E0008E7F888302EE10E0F80110821092DA0009
:1008F00081EEC82ED12CF601108288818F778883F3
:1009000088818068888388818F7D888319BC109254
:10091000670310926803109266031092650390EECD
:10092000E92EF12CF70180818B7F808388818160A3
:10093000888342E060E080E00E942604F601808126
:100940008E7F8083F80180818160808380818860D0
:100950008083F70180818E7F808388818061888396
:10096000DF91CF911F910F91FF90EF90DF90CF908B
:100970000895FC0180916F0390917003861797078B
:10098000A0F06115710529F49091E8009E7790938D
:10099000E80090E06115710551F4911108C0809153
:1009A000E80082FF34C080E00895BC01F2CF80915E
:1009B00067038823C1F18530C1F18091E80083FD90
:1009C00030C08091E80082FDEACF8091E80080FF8E
:1009D000E1CF8091F3002091F200382F611571056D
:1009E00019F02830310558F091E02830310509F030
:1009F00090E02091E8002E772093E800CBCF819102
:100A00008093F100615071092F5F3F4FE7CF8091D4
:100A10006703882341F0853041F08091E80083FF2F
:100A2000BECF81E0089582E0089583E0089580912B
:100A30006703843011F482E0089581E008950895F9
:100A400080914403089590911C03803F41F480916C
:100A50001D0387FD10921D03992371F00895813FB6
:100A600029F480911D031816ACF3F6CF823F81F470
:100A700097FFF2CF10921C0380911D0390911E03EB
:100A8000892B90911F03892B49F710922003089519
:100A9000833F19F4191674F3DFCF893F39F480913D
:100AA0001E031816CCF610921E03D6CF8A3F29F4E7
:100AB00080911E0387FFD0CFF6CF8B3F39F4809112
:100AC0001F0387FFC9CF10921F03C6CF8C3F29F4A5
:100AD00080911F031816BCF3BFCF843F31F480917F
:100AE0001B038E7F80931B03B7CF853F21F480913A
:100AF0001B038D7FF7CF863F21F480911B038B7FF3
:100B0000F1CF873F21F480911B03877FEBCF883F94
:100B100021F480911B038F7EE5CF8D3F31F48091CE
:100B2000E9028E7F8093E90297CF8E3F21F4809176
:100B3000E9028D7FF7CF8F3F09F08ECF8091E902D8
:100B40008B7FF0CF8091E90280FD16C081FD16C039
:100B500082FD16C0809120038823A1F0883280F4A2
:100B600028E0829FC001112468E270E00E944929B8
:100B7000862F672B39F0089582E0089584E0089568
:100B800088E0089581E008958091E90280FD16C013
:100B900081FD16C082FD18C080912003882391F04A
:100BA0008C3390F423E2829FC00111246CE370E047
:100BB0000E944929862F672B49F0089588E00895FF
:100BC00081E1089585E0089583E2089581E0089524
:100BD000803F31F40E94C405819580931D030895E0
:100BE000813F19F40E94C405F8CF823F31F40E947E
:100BF000C405819580931C030895833F19F40E94D6
:100C0000C405F8CF893F29F40E94A20580931E03F2
:100C100008958A3F21F40E94A2058195F7CF8B3F6A
:100C200031F40E94A205819580931F0308958C3FA3
:100C300019F40E94A205F8CF843F31F480911B0380
:100C4000816080931B030895853F21F480911B03ED
:100C50008260F7CF863F21F480911B038460F1CF3F
:100C6000873F21F480911B038860EBCF883F21F4FC
:100C700080911B038061E5CF8D3F31F48091E902C3
:100C800081608093E90208958E3F21F48091E9020A
:100C90008260F7CF8F3FB9F78091E9028460F1CF8E
:100CA000CF92DF92EF92FF920F931F932FB7F8949A
:100CB0004091E5025091E6026091E7027091E802EE
:100CC0002FBF6A017B01EE24FF248C0130E020E07D
:100CD000C016D106E206F30650F0481B590BCA01B4
:100CE0001F910F91FF90EF90DF90CF9008954150AA
:100CF0005109F3CF8091E00281111092E002089532
:100D00008091DF029091DE02892B9091DD02892B88
:100D10008093EE019091E0029923A1F0892B8093BA
:100D2000EE0180911F01882341F18091020387FF2A
:100D300024C08EE1E0EFF1E090E0815000F59111E8
:100D40000E947A06E0910903F0910A033097E1F0DE
:100D500080911F01882359F08091020387FF07C00B
:100D60008091EE018093EF0185E08093EE01028097
:100D7000F381E02D8EEE91E0099486E0DBCF2191A6
:100D80002223D9F29F5FD9CF089590911F01992313
:100D9000D1F09091020397FF16C0E82FE695E695F3
:100DA000E695EE31E0F4F0E0E251FE4F282F277097
:100DB00081E090E001C0880F2A95EAF78095928142
:100DC000892382830895E0EFF1E09191891303C0B4
:100DD000DF0111971C9291E0E63FF907B1F7089502
:100DE00090911F019923C1F09091020397FF14C0C5
:100DF000E82FE695E695E695EE31F8F4F0E0E2515D
:100E0000FE4F877021E030E001C0220F8A95EAF79B
:100E10008281822B82830895A0EFB1E0EFEF90E012
:100E20002D91821751F0EF3F19F4211101C0E92FE4
:100E30009F5F9630A9F7EF3F09F408950E2E000C3E
:100E4000FF0BE251FE4FE6CFE92FEE0FE90FEE0F59
:100E50008E0F982F977086958695869525E0829FB0
:100E6000F0011124EB55FD4F50E040E080E021916E
:100E700030E0092E02C0369527950A94E2F72170DA
:100E80003327042E01C0220F0A94EAF7822B4F5F0A
:100E90005F4F4530510559F70895E92FEE0FE90FDF
:100EA000EE0F8E0F982F977041E001C0440F9A9576
:100EB000EAF786958695869595E0899FF00111243D
:100EC000EB55FD4F30E020E070E05191DF011197CC
:100ED000CB01022E02C0969587950A94E2F78170A5
:100EE00081958527842385278C932F5F3F4F25305D
:100EF000310559F708958091A402909173029813D7
:100F000001C008958F5F8770FACF882341F08095E4
:100F10009091DE0289238093DE020C94800608956E
:100F2000882339F09091DE02982B9093DE020C9486
:100F300080060895882341F080959091DF028923EF
:100F40008093DF020C9480060895882339F09091F5
:100F5000DF02982B9093DF020C9480060895209175
:100F60005502309156022817390771F090935602B6
:100F700080935502E0910903F0910A03309721F024
:100F80000084F185E02D0994089520915302309159
:100F900054022817390771F090935402809353023A
:100FA000E0910903F0910A03309721F00680F78160
:100FB000E02D09940895E0910903F0910A03309718
:100FC00021F00190F081E02D099480E00895FA016C
:100FD000811101C0FB01099480913903982F9E7FF4
:100FE00029F4817082608093390308958A34E8F38C
:100FF00081708864F8CFAF92BF92DF92EF92FF9238
:101000000F931F93CF93DF93082F162FE901E42F3F
:10101000F0E0E455FF4F611111C0E4915E2F4E2FB7
:101020004983E8835A831B82DF91CF911F910F91EF
:10103000FF90EF90DF90BF90AF900895E62EF12CD7
:101040004491D42EE42FF0E026E0829FC0011124C9
:101050002FEF30E0B9010E943529802F90E0880FF2
:10106000991F55E5569FD001579FB00D11248A1B3B
:101070009B0B982F990F890F5901AE18BF08AE9E90
:10108000D001AF9EB00DBE9EB00D11245B2F189FF6
:1010900080011124012F11275901A01AB10AAE9E17
:1010A0008001AF9E100DBE9E100D11245901A81A8B
:1010B000B108AE9CC001AF9C900DBE9C900D112458
:1010C000892F9927281B390B2E9FC0012F9F900D28
:1010D0003E9F900D1124E92F62307105A1F050F46C
:1010E0006115710509F49CCF6130710581F0EB2F1A
:1010F000512F96CF6430710569F080F0663071052C
:1011000009F48ECFF4CFE42F4B2F592F89CFE42F42
:10111000412F86CFEB2F542F492F82CF4B2F5D2DA0
:10112000E12F7ECF9091020392FF06C0282F2871F5
:101130002830F9F4877F846093FF06C0282F287138
:101140002831F1F4877E84612091030320FF06C0DB
:10115000382F38713830D9F4877F816021FF06C07D
:10116000282F28712831D1F4877E816194FD877EF4
:101170000895282F24712430F9F68B7F8860DCCF06
:10118000282F2471243101F78B7E8861DDCF382F21
:101190003171313019F78E7F8860E0CF282F2171AF
:1011A000213121F78E7E8861E1CFCF93DF93972F96
:1011B00070E026E0929F600D711D1124FB0134E563
:1011C000839FE00DF11D1124EE0FFF1FEF54FD4F23
:1011D000C591D491CE01C238D105B9F1E8F5C1333A
:1011E000D10509F499C050F5C932D10509F48DC073
:1011F000CA32D10509F497C0C11542E5D40708F0F9
:1012000047C1C11521E5D20708F0C2C1C83ED105CA
:1012100008F020C1C03ED10568F5C83AD10508F0F4
:1012200089C0C53AD10508F088C1C130D10511F196
:10123000209709F443C02497E8F440C0C533D10592
:1012400009F45CC0C933D105B9F6209102032370BB
:1012500089F080EE90E00EC0C33ED10591F168F4B4
:10126000C03ED105F9F0C23ED10531F6209102030E
:1012700022FD20C0DF91CF910895C63ED10561F1D6
:10128000C73ED10581F1C43ED10509F0B5CF20910B
:10129000030321FFEFCF8091020384FD0FC087EE8F
:1012A00090E0E8CF2091020320FDA3C13091030319
:1012B00030FFE0CF83EE90E024FFDCCF90E080E0D1
:1012C000D9CF2091020322FD97C13091030330FD55
:1012D000C0CF24FFCFCFF2CF2091020323FFCACF8C
:1012E00024FDECCFDCCF2091020323FD88C1309197
:1012F000030331FFEECF84EE90E0BCCF20910203D8
:1013000025FFB8CF89E290E0B5CF2091020325FFF9
:10131000B1CF85E390E0AECF2091020326FFAACFA4
:101320008AE290E0A7CF2091020326FFA3CF81E3BA
:1013300090E0A0CFCF3BD10508F682EE94E4C83A06
:10134000D10509F497CF89EE94E4C93AD10509F49F
:1013500091CF8AEE94E4CA3AD10509F48BCF85EB9C
:1013600094E4CB3AD10509F485CF86EB94E4CC3AEA
:10137000D10509F47FCF83EB94E4CB3BD10509F48D
:1013800079CF84EB94E4CC3BD10509F473CF87EBA0
:1013900094E4CD3AD10509F46DCF8CEC94E4C03BD4
:1013A000D10509F467CF8DEC94E4CE3AD10509F468
:1013B00061CF83E895E4CF3AD10509F45BCF8AE8A1
:1013C00095E4C13BD10509F455CF82E995E4C23BD0
:1013D000D10509F44FCF84E995E4C33BD10509F465
:1013E00049CF81E296E4C43BD10509F443CF83E2BF
:1013F00096E4C53BD10509F43DCF84E296E4C63BB3
:10140000D10509F437CF85E296E4C73BD10509F44D
:1014100031CF86E296E4C83BD10509F42BCF87E2B1
:1014200096E4C93BD10509F425CF8FE694E4CD3B82
:10143000D10509F41FCF80E794E4CE3BD10509F430
:1014400019CF80E094E4CA3BD10509F013CF8AE2BA
:1014500096E410CFC11530E2D30760F4C11541E026
:10146000D40708F007CFCE019065C03FD10508F042
:1014700001CF24CFC11580E4D80708F41FCFC115D0
:1014800090E5D90708F068C0CE019F70906AF2CE4F
:10149000C11526E5D20718F5C11535E5D30708F0C3
:1014A0008DC0C11544E5D40708F083C09C2F9695E4
:1014B0009695AE0143705527C115D34508F46DC00C
:1014C00021E030E002C0220F331F4A95E2F740E2EC
:1014D000949FC0011124822B932B9A68CBCEC11507
:1014E0009AE5D90778F4C11529E5D20708F070C04C
:1014F000C11538E5D30708F4E1CE9C2F8827806F0B
:10150000906AB8CEC1154BE5D40708F4D7CEC11503
:101510008CE5D80708F469C0CE0190568115904239
:1015200008F0CCCE8D2F8F710E94920890E0982FFA
:10153000882788279F718C2B49C081E890E4C53AA1
:10154000D10509F497CE82E890E4C63AD10509F4B2
:1015500091CE83E890E48ECE9E01E4E03695279507
:10156000EA95E1F723708C2F86958695837030E29B
:10157000839FC0011124922BC37021E030E002C090
:10158000220F331FCA95E2F7822B932B9C6872CEF1
:101590009C2F8827816F906A6DCE21E030E002C0D9
:1015A000220F331F4A95E2F740E2949FC0011124B5
:1015B000EBCF9C2F8827846F906A5CCE8C2F0E9483
:1015C000920890E0982F882788279F71906252CECA
:1015D0008C2F8F700E94920834E0D695C7953A956B
:1015E000E1F7CF709C2F906945CECE019927906688
:1015F00041CE89E390E03ECE82EE90E03BCE86EE97
:1016000090E038CEBF92CF92DF92EF92FF920F938D
:101610001F93CF93DF938C01C0900503D0900603F6
:10162000E0900703F09008038091E1029091E202BC
:10163000A091E302B091E402C82AD92AEA2AFB2A3F
:10164000CFE1D0E0BC2ED701C6010C2E04C0B69568
:10165000A795979587950A94D2F780FD0EC021979C
:1016600088F7B12C8B2DDF91CF911F910F91FF90B7
:10167000EF90DF90CF90BF900895B8018C2F0E941B
:10168000D508019761F3EECFCF93DF93EC010E9471
:10169000020BBE01DF91CF910C94D5080E94440B40
:1016A000292F2F7092959F7092509E3078F4E92FD9
:1016B000F0E0EF50F54D0C945D29803F19F020F4D7
:1016C000883E20F481E00895843FE1F380E00895AE
:1016D000883EC0F3813FD1F7F5CF822F869586955E
:1016E0008695089527982F98089526982E980895FE
:1016F00025982D98089556985E980895279A2F9AC0
:101700000895269A2E9A0895259A2D9A089584B1BF
:10171000807F84B985B1807F85B98AB1837F8AB99A
:101720008BB1837F8BB93E984698089580B38C70B7
:1017300080BB81B3836F81BB08950F931F93CF93B9
:10174000DF9300D00F92CDB7DEB78C010E94170552
:10175000823011F0843021F584E089831B830A8371
:1017600082E08093E9008FEF9091E800815095FD31
:1017700006C095ED9A95F1F700008111F5CF8091A3
:10178000E80085FF0DC050E040E063E070E0CE016E
:1017900001960E94DD038091E8008E778093E80037
:1017A0000F900F900F90DF91CF911F910F9108959F
:1017B000CF93DF9300D00F92CDB7DEB720916703B0
:1017C000243031F523E02983805891099B838A8353
:1017D00082E08093E9008FEF9091E800815095FDC1
:1017E00006C095ED9A95F1F700008111F5CF809133
:1017F000E80085FF0DC050E040E063E070E0CE01FE
:1018000001960E94DD038091E8008E778093E800C6
:101810000F900F900F90DF91CF910895CF93DF93AA
:10182000EC010E941705823011F08430F9F482E057
:101830008093E9008FEF9091E800815095FD06C0FC
:1018400095ED9A95F1F700008111F5CF8091E800B0
:1018500085FF0CC050E040E066E070E0CE010E94E1
:10186000DD038091E8008E778093E800DF91CF91CF
:101870000895CF93DF93EC010E941705823011F099
:101880008430B9F580911F018823B1F18091020362
:1018900087FF32C060E282E08093E9008FEF909191
:1018A000E800815095FD06C095ED9A95F1F700008E
:1018B0008111F5CF8091E80085FF1BC080911F0149
:1018C00070E050E040E0811104C050E040E068E08A
:1018D00070E0CE010E94DD038091E8008E77809356
:1018E000E80080E2FE01A5E4B3E001900D928A9544
:1018F000E1F7DF91CF91089568E081E0CDCFEF92DD
:10190000FF920F931F93CF93DF930E947B0B0E9454
:10191000780B0E94750B0E94720B88E8E82EF12C60
:101920008FEF90E0F701918380830AE810E0F801DF
:1019300091838083CCE8D0E0998388830E94840BD4
:10194000FFEF20E782E0F15020408040E1F700C047
:1019500000000E94810B9FEFE0E7F2E09150E04031
:10196000F040E1F700C000000E947E0B2FEF80E7FF
:1019700092E0215080409040E1F700C000000E94BA
:10198000780BEFEFF0E722E0E150F0402040E1F784
:1019900000C000000E94750B8FEF90E7E2E08150DD
:1019A0009040E040E1F700C000000E94720B80917F
:1019B000F0028770FFEF8F9FC001112495958795E6
:1019C000959587959927F70191838083F8019183F5
:1019D0008083998388830E947B0B0E94780B0E94EE
:1019E000750BDF91CF911F910F91FF90EF900C94A9
:1019F000720BCF9384E090E00E946F29C82F81E2A0
:101A000090E00E946F29982F8C2FCF9108956091BC
:101A1000EC028CE090E00C948329CF92DF92EF925D
:101A2000FF926B017C010E94EC07B701A60188E0E0
:101A300090E0FF90EF90DF90CF900C9495298091EB
:101A40003D03833018F48F5F80933D036091390329
:101A500070913A0380913B0390913C030C940D0DDF
:101A600080913D03882319F0815080933D0360915C
:101A7000390370913A0380913B0390913C030C949D
:101A80000D0DE9E3F3E083E0808311828FEF828321
:101A90008383148260817181828193810C940D0D06
:101AA0006FEE7EEF90E080E00E94A12960E082E08E
:101AB00090E00E94832960E083E090E00E94832907
:101AC0001092E1021092E2021092E3021092E402FC
:101AD00060E084E090E00E94832960E081E290E091
:101AE0000E94832960E085E090E00E94832960E005
:101AF00086E090E00E9483296FEF87E090E00E94EB
:101B0000832940E050E0BA0188E090E00E949529E6
:101B100060E08DE090E00E94832940E050E0BA014F
:101B200088E190E00E94952960E087E190E00E94C2
:101B3000832940E050E0BA018CE190E00E949529B1
:101B400060E080E290E00E9483291092F0021092FF
:101B5000F1021092F2021092F30284E0806180930D
:101B6000F0024091F0025091F1026091F202709106
:101B7000F3028FE090E00E94952940E050E0BA0126
:101B800083E190E00C949529CF93C82F873070F5AE
:101B90008091130190911401892B89F564E670E01E
:101BA00080E40E9474289093140180931301892B80
:101BB000D1F464E670E082E10E94D0289093140191
:101BC00080931301892B79F481E090E001C0880FA4
:101BD000CA95EAF764E670E080950E94D028909359
:101BE000140180931301CF910C9423298A30B9F00A
:101BF00040F4883071F0893079F0209A2898CF919C
:101C000008958C3091F070F08D30B9F73E9A469877
:101C1000F6CF219A2998F3CF229A2A98F0CF239AC7
:101C20002B98EDCF529A5A98EACF539A5B98E7CF08
:101C300080E290E09093140180931301809111024F
:101C400081110EC00E946E2881E0809311022FEF57
:101C500083ED90E3215080409040E1F700C0000008
:101C600064E670E080E40E947428909314018093ED
:101C70001301892B09F04EC064E670E080E00E94F9
:101C8000D0289093140180931301892B09F042C04E
:101C900064E670E080E00E94D02890931401809365
:101CA0001301892BB9F564E670E08FE30E94D02818
:101CB0009093140180931301892B61F50E942329CD
:101CC00064E670E080E40E9474289093140180938D
:101CD0001301892BF9F464E670E08CE00E94D028AF
:101CE0009093140180931301892BA1F464E670E0B2
:101CF00080E00E94D0289093140180931301892BD7
:101D000049F464E670E08FE30E94D02890931401B8
:101D1000809313010E942329809113010895CF938A
:101D2000DF938091390380FD0BC0E5E1F2E0118281
:101D3000108212821382349652E0E135F507B9F72A
:101D4000C5E1D2E0FE01928120813181892F2917DE
:101D500008F4822F381708F4832F8383381B3183CC
:101D6000281B2083981B9283349682E0E135F80784
:101D700051F70E946E2864E670E084E80E9474289F
:101D800064E670E088810E94D02864E670E0898172
:101D90000E94D02864E670E08A810E94D02864E620
:101DA00070E08B810E94D028249692E0C135D9073B
:101DB00039F70E942329579A3BB13F772BB120680E
:101DC0004FB7F89485E192E0FC015191CF0168E0B2
:101DD0002BB9000000C057FF3BB9550F000000C0F1
:101DE00000C000C03BB900C06A9591F7F2E08135B0
:101DF0009F0751F74FBF8FE391E00197F1F700C0C4
:101E00000000DF91CF910895EF92FF920F931F93FF
:101E1000CF93DF938C01C5E1D2E0F12CE12CF801E6
:101E2000948160913B0380913A03F7E0EF16F1044F
:101E3000FCF49923F9F09E0140913C030E94FB07BA
:101E40002FEFE21AF20A24968FE0E816F10439F730
:101E50000E948F0EF801848190E00196817099278D
:101E60008483DF91CF911F910F91FF90EF900895A0
:101E7000992309F39E0140E0E1CFEF92FF921F9377
:101E8000CF93DF93EC0185E1E82E82E0F82E10E09D
:101E90008C81970140913C0360913B03810F0E942C
:101EA000FB071F5E84E0E80EF11C1F3F89F70E94CC
:101EB0008F0E9A818C8190FF08C08F5F8C83DF9199
:101EC000CF911F91FF90EF9008958150F7CFBF926F
:101ED000CF92DF92EF92FF920F931F93CF93DF93F6
:101EE000FC018281DD24DA9480FD02C0DD24D394DC
:101EF00005E112E0D0E0C0E02FE0B22EF80111823F
:101F000010821282138294E0E92EF12CC12C809170
:101F100012028C0D80310CF43DC06B2D0E942729DC
:101F2000892F082E000C990B8C179D0791F4809136
:101F30003C038E9DA0018F9D500D11245595479512
:101F400055954795980160913B0380913A030E9413
:101F5000FB07CD0CF1E0EF1AF108C9F621960C5FF2
:101F60001F4FCF30D10551F60E948F0E8091120283
:101F700091E0D91215C0811111C08EE08093120238
:101F8000DF91CF911F910F91FF90EF90DF90CF9055
:101F9000BF90089587FFC5CF815FC3CF8150EECF3B
:101FA00090E00196BE010E944929E8CF0F931F934C
:101FB000CF93DF93C5E1D2E0FE011182108212823D
:101FC0001382349682E0E135F807B9F710E000E0BB
:101FD00080911302082E000C990B081719078CF139
:101FE00080911201082E000C990B801791074CF17B
:101FF0009E0140913C0360913B0380913A030E9413
:10200000FB070F5F1F4F24960F30110509F70E9441
:102010008F0E8091110190911302980F90931302EB
:1020200020911201280F20931201121614F49E30F1
:102030001CF0819580931101DF91CF911F910F9139
:102040000895198218821A821B82DBCFEF92FF92C9
:102050000F931F93CF93DF93EC018C819D810196A9
:10206000817099279D838C8385E1E82E82E0F82E8C
:1020700010E005E5812F86952C813D81820F932FFD
:10208000911D8170970140913C0360913B03809FBB
:10209000802D11240E94FB071F5F84E0E80EF11CD5
:1020A0001F3041F7DF91CF911F910F91FF90EF907B
:1020B0000C948F0E9091390390FF0DC0E5E1F2E092
:1020C0008183608342831382349692E0E135F9077D
:1020D000B9F70C948F0E08950F931F93CF93DF934E
:1020E00000D000D0CDB7DEB78C01809114028111F1
:1020F0000AC09E012F5F3F4F4FEF6FEF0E94FB071B
:102100008A8180931402F8016481613069F08091C2
:10211000140240E0662361F040E0623011F4409127
:10212000140280E060E004C06091140240E080E0AE
:102130000E945A10F801848190E0019663E070E0FB
:102140000E94492984830F900F900F900F90DF9188
:10215000CF911F910F910895CF93DF9300D000D0BE
:10216000CDB7DEB79091390390FF0AC09E012F5F73
:102170003F4F0E94FB074B8169818A810E945A1060
:102180000F900F900F900F90DF91CF910895CF9304
:10219000DF93EC01EC81F0E0EF54FE4F4491E9E372
:1021A000F3E0628181810E94AC108C818F5F8C830F
:1021B000DF91CF910895CF93DF93EC01E9E3F3E052
:1021C000438162818C810E94AC108C818F5F8C83F3
:1021D000DF91CF9108955F926F927F928F929F923D
:1021E000AF92BF92CF92DF92EF92FF920F931F9325
:1021F000CF93DF9300D000D0CDB7DEB7182F762E67
:10220000042F622E9091390390FF29C0E92FE695A3
:10221000AE2FB0E0A05EBE4F8C9180933E039E7FB8
:10222000923089F59E012F5F3F4F812F0E94FB075F
:102230004B8169818A810E945A1010933A037092EF
:102240003B0300933C03662051F060913903709189
:102250003A0380913B0390913C030E940D0D0F9037
:102260000F900F900F90DF91CF911F910F91FF90E2
:10227000EF90DF90CF90BF90AF909F908F907F9026
:102280006F905F900895823019F400913C03D5CF90
:10229000863019F410913A03D0CF8930D9F38931BF
:1022A00061F6E9518E2F8170582EE695F0E0E455E5
:1022B000FE4FA590B490BB2485E1E82E82E0F82E75
:1022C000D12CC12C9FE0892E912CC601B4010E9413
:1022D0003529812F511013C0860F9701402F672D8C
:1022E0000E94FB07CA0CDB1C84E0E80EF11C81E5B0
:1022F000E81682E0F80649F70E948F0E9ECF861BF3
:10230000ECCFE9E3F3E043812CE0421B08F440E02A
:1023100021E0628181810C94EB10E9E3F3E04381D9
:102320002CE0420F08F44FEF21E0628181810C9490
:10233000EB10E9E3F3E062812FEF621B08F460E049
:1023400021E0438181810C94EB10E9E3F3E06281A9
:102350002FEF620F08F46FEF21E0438181810C942D
:10236000EB10E9E3F3E0818121E0438162818C504D
:102370000C94EB10E9E3F3E0818121E04381628179
:10238000845F0C94EB10E9E3F3E080818E7F80831F
:1023900060817181828193810E940D0D10923F03B3
:1023A0002FEF80E792E0215080409040E1F700C09D
:1023B00000000C948F0ECF93873008F040C08091BE
:1023C000130190911401C0E0892B71F464E670E070
:1023D00080E40E9474289093140180931301892B48
:1023E00031F0C0E00E9423298C2FCF91089564E63C
:1023F00070E083E10E94D028909314018093130130
:10240000892B79F764E670E081E40E947428909348
:10241000140180931301892B21F784E690E00E9438
:10242000FF2897FF05C09093140180931301D9CF23
:10243000C82FC0951092140110921301D3CFCFB1C1
:102440008FB1869586958C73C3708C2BC82FC095E1
:10245000CBCF78941F921FB61F9211248F939F9316
:10246000AF93BF938091E5029091E602A091E702BD
:10247000B091E8020196A11DB11D8093E5029093F1
:10248000E602A093E702B093E802BF91AF919F915B
:102490008F911F901FBE1F9018952FB7F8948091B1
:1024A000E5029091E602A091E702B091E8022FBF09
:1024B0000895E0910903F0910A03309749F082E012
:1024C00080931A030480F581E02D8AE193E0099559
:1024D0000E944D129093220380932103089510923D
:1024E000DE021092DD020E94800686E0EAE1F3E05F
:1024F000DF011D928A95E9F7109220031092E902FC
:102500000E94591290E080E00E94C50790E080E0B0
:102510000C94AF076093E1027093E2028093E302B0
:102520009093E4020C946F121092DF0280911F01CD
:10253000E0EFF1E0882359F08091020387FF07C0A4
:102540008EE1DF011D928A95E9F70C946F1286E007
:10255000F8CF1F93CF93DF93CDB7DEB7AA970FB60F
:10256000F894DEBF0FBECDBF89E693E02091F10065
:10257000FC012193CF01F3E081379F07B9F78091E8
:102580006A03833009F46FC0B8F4813009F446C09F
:10259000823009F4B0C08091E80083FF87C2809147
:1025A000690390916A039A3008F080C2E92FF0E045
:1025B000E150F54D0C945D298A3009F48BC08B30C5
:1025C00009F46EC0893039F780916903813219F7B7
:1025D00080916D0390916E030297E8F68091E80078
:1025E000877F8093E8008091E80082FF37C0909158
:1025F000F3008091F200029729F48091F1008B7F23
:10260000813021F48091F100809344038091E800AF
:102610008B778093E8000E940704BDCF8091690307
:10262000813A09F0B8CF8091E800877F8093E80075
:1026300080916D0390916E03892B61F460E285E4D3
:1026400093E070E00E94B9048091E8008B7780935A
:10265000E800A1CF60E090E080E0F3CF80916703D5
:102660008111C1CF98CF80916903813A09F093CF4E
:1026700080916D0390916E03892B09F08CCF80912E
:10268000E800877F8093E8008091E80080FFFCCF1E
:1026900080911F018093F1008091E8008E77B9CF7F
:1026A00080916903813209F076CF80916D0390911A
:1026B0006E03892B09F06FCF8091E800877F8093AC
:1026C000E8000E94070480916B0380931F010E9421
:1026D000941261CF80916903813209F05CCF8091BF
:1026E000E800877F8093E8000E94070480916C03D4
:1026F0008093430350CF80916903813A09F04BCF17
:102700008091E800877F8093E8008091E80080FF57
:10271000FCCF80914303BECF803899F0823809F016
:10272000C5C180916D038F70873008F0BFC1809361
:10273000E9008091EB0085FB882780F91092E90081
:1027400006C080916503909166039111826090911B
:10275000E800977F9093E8008093F1001092F100D9
:102760008091E8008E779EC1882309F48CC1823065
:1027700009F09CC180916B0381118FC180916D0321
:102780008F702FEF280F263008F090C18093E9005A
:102790002091EB0020FF81C1933031F48091EB0058
:1027A00080628093EB0079C19091EB0090619093EF
:1027B000EB0021E030E001C0220F8A95EAF7209378
:1027C000EA001092EA008091EB008860EACF811164
:1027D0006DC110916B031F778091E3008078812B8E
:1027E0008093E3008091E800877F8093E8000E9457
:1027F00007048091E80080FFFCCF8091E3008068AF
:102800008093E30082E0111183E0809367034EC15F
:102810008058823008F04AC180916B0390916C031C
:102820008C3D23E09207A1F583E08A838AE28983C5
:102830004FB7F894DE01139620E03EE051E2E32F1B
:10284000F0E050935700E49120FF03C0E295EF7051
:102850003F5FEF708E2F90E0EA30C0F0C7968D9307
:102860009D932F5F243159F74FBF8091E800877FF8
:102870008093E8006AE270E0CE0101960E94B904FC
:102880008091E8008B778093E80010C1C096E7CF75
:1028900040916D0350916E03292F3327233031056A
:1028A00009F445C078F52130310509F47BC08BE38C
:1028B00090E0E3E6F6E02230310509F0F7C0209120
:1028C000E800277F2093E80020916F033091700388
:1028D0008217930708F49C0140E02115310509F0A7
:1028E00070C041116EC08091E80082FDC9CF809117
:1028F0006703882329F2853019F28091E80083FF6D
:10290000F2CFBECF2132310509F440C02232310569
:1029100009F0CCC04115510509F44EC041305105B4
:1029200009F0C4C080EC90E0E3E6F5E0C8CF992759
:1029300081309105D9F0009771F082309105F1F066
:10294000039709F0B3C0E0EBF6E0E4918E2F90E03E
:10295000E0EBF6E007C0E8EDF6E0E4918E2F90E0C2
:10296000E8EDF6E0009709F4A1C0A9CFEEECF6E09F
:10297000E4918E2F90E0EEECF6E0F4CFE6EBF6E09B
:10298000E4918E2F90E0E6EBF6E0ECCF4115510597
:1029900071F04130510509F089C089E090E0EEE81E
:1029A000F6E08DCF82E190E0EEE9F6E088CF89E0B5
:1029B00090E0E5E7F6E083CF80E490E0E3E2F6E044
:1029C0007ECF80916703882309F45ACF853009F4BC
:1029D00057CF8091E80083FD53CF8091E80082FDBE
:1029E00082CF8091E80080FF78CF9091F3008091B2
:1029F000F2002115310519F08830910550F041E0C1
:102A0000089709F040E08091E8008E778093E80015
:102A100064CF44914093F1003196215031090196E1
:102A2000E8CF803809F042C08091E800877F80932A
:102A3000E800809168038093F10092CE811136C046
:102A400010916B03123090F58091E800877F80939E
:102A5000E800109368030E940704112311F084E03A
:102A600005C08091E30087FDFACF81E08093670382
:102A700042E061EC81E00E94260442E261EC82E0E7
:102A80000E94260413C080916B03813079F481E0A9
:102A9000933009F080E0809366031092E900809102
:102AA000E800877F8093E8000E9407048091E80097
:102AB00083FF0AC08091E800877F8093E8008091BF
:102AC000EB0080628093EB00AA960FB6F894DEBF0D
:102AD0000FBECDBFDF91CF911F9108951F920F922E
:102AE0000FB60F9211242F933F934F935F936F93E1
:102AF0007F938F939F93AF93BF93CF93DF93EF9386
:102B0000FF93D091E900DF708091EC00C82FC17075
:102B100080FDC0E81092E9008091F000877F8093EB
:102B2000F00078940E94A9121092E9008091F000C0
:102B300088608093F000CD2BCF70C093E900FF91A7
:102B4000EF91DF91CF91BF91AF919F918F917F9145
:102B50006F915F914F913F912F910F900FBE0F900A
:102B60001F901895882309F459C0823871F40E9487
:102B7000DB0781FF53C089E30E94F0060E948006B4
:102B800089E30E94C5060C948006833859F40E949C
:102B9000DB0780FF43C083E50E94F0060E948006A9
:102BA00083E5EFCF843859F40E94DB0782FF36C0FB
:102BB00087E40E94F0060E94800687E4E2CF9CEF43
:102BC000980F913AF0F290E2980F983088F487705D
:102BD00021E030E0A90102C0440F551F8A95E2F7B9
:102BE000CA0180959091DF0289238093DF02CBCFC9
:102BF0009BE5980F933020F490E080E00C94C5079B
:102C000098E5980F973120F490E080E00C94AF079E
:102C1000803F20F00E9423050C94591208958823C8
:102C200009F408C18238B9F40E94DB0781FD02C1B2
:102C300089E30E94F0060E9480062FEF81EE94E067
:102C4000215080409040E1F700C0000089E30E94DD
:102C5000C5060C9480068338A1F40E94DB0780FD32
:102C6000E9C083E50E94F0060E9480062FEF81EE06
:102C700094E0215080409040E1F700C0000083E5DF
:102C8000E6CF8438A1F40E94DB0782FDD3C087E43D
:102C90000E94F0060E9480062FEF81EE94E0215002
:102CA00080409040E1F700C0000087E4D0CF9CEF67
:102CB000980F913A18F40E94F006CBCF90E2980F4B
:102CC000983068F4877021E030E001C0220F8A95C7
:102CD000EAF78091DF02822B8093DF02BACF9BE577
:102CE000980F933070F4853A31F0863A39F083E8E2
:102CF00090E00C94C50781E890E0FBCF82E890E07B
:102D0000F8CF98E5980F973108F08EC0883A09F40B
:102D100046C0893A09F446C08A3A09F446C08B3A5B
:102D200009F446C08C3A09F446C08B3B09F446C00E
:102D30008C3B09F446C08D3A09F446C0803B09F447
:102D400046C08E3A09F446C08F3A09F446C0813B2A
:102D500009F446C0823B09F446C0833B09F446C0EF
:102D6000843B09F446C0853B09F446C0863B09F420
:102D700046C0873B09F446C0883B09F446C0893BFE
:102D800009F446C08D3B09F446C08E3B09F446C0A9
:102D90008A3B09F446C090E080E00C94AF0782EED5
:102DA00090E0FBCF89EE90E0F8CF8AEE90E0F5CF8F
:102DB00085EB90E0F2CF86EB90E0EFCF83EB90E0F5
:102DC000ECCF84EB90E0E9CF87EB90E0E6CF8CECA2
:102DD00090E0E3CF8DEC90E0E0CF83E891E0DDCFB1
:102DE0008AE891E0DACF82E991E0D7CF84E991E0F7
:102DF000D4CF81E292E0D1CF83E292E0CECF84E2E1
:102E000092E0CBCF85E292E0C8CF86E292E0C5CFD8
:102E100087E292E0C2CF8FE690E0BFCF80E790E0FC
:102E2000BCCF8AE292E0B9CF803F20F00E94E80553
:102E30000C9459120895CF93C82F0E940F16C933CE
:102E400049F42FEF87EE93E0215080409040E1F766
:102E500000C000008C2FCF910C94B2150F931F93DC
:102E6000CF93DF93C62FD42F022FFC0182818823BA
:102E7000A1F0609367020E944D12909352028093DA
:102E80005102C77081E001C0880FCA95EAF7DF914F
:102E9000CF911F910F910C94A50710916702161303
:102EA00035C080915102909152020E945006883C98
:102EB000910560F5C0E2CD0F1D17B9F080E2810FDA
:102EC000883040F4177081E001C0880F1A95EAF746
:102ED0000E949A07C83048F481E09D2F977001C086
:102EE000880F9A95EAF70E94A507802F0E941B176A
:102EF000C83098F4D77081E001C0880FDA95EAF7FE
:102F0000DF91CF911F910F910C949A07C77081E0C8
:102F100001C0880FCA95EAF7F3CFDF91CF911F91D7
:102F20000F91089560913903669570E04BE050E091
:102F300086E091E00E94E22A892B19F481E08093D7
:102F40003F030E944D1290933403809333030895FE
:102F50009091390390FF36C09170811129C0926021
:102F600090933903662351F06091390370913A03CD
:102F700080913B0390913C030E940D0D60913903B9
:102F8000669570E04BE050E086E091E00E94E22A16
:102F9000892BA9F010923F0381E08093360320E053
:102FA00040913C0360913B0380913A030C94EB10F9
:102FB000853210F09864D4CF880F982BD1CF0E941F
:102FC0009217EACF0895E9E3F3E08081816080837E
:102FD00060E086950C94A8171F920F920FB60F927F
:102FE00011242F933F934F935F936F937F938F930E
:102FF0009F93AF93BF93EF93FF938091E10082FF84
:1030000009C08091E20082FF05C08091E1008B7FC2
:103010008093E1008091DA0080FF24C08091D80085
:1030200080FF20C08091DA008E7F8093DA0080914B
:10303000D90080FFA8C080E189BD82E189BD09B4C3
:1030400000FEFDCF81E080936703809140038111F2
:1030500009C00E948D030E9458048091E2008460A0
:103060008093E2008091E10080FF17C08091E20030
:1030700080FF13C08091E2008E7F8093E2008091F8
:10308000E20080618093E2008091D80080628093AA
:10309000D80019BC85E0809367038091E10084FF2C
:1030A00036C08091E20084FF32C080E189BD82E1B8
:1030B00089BD89B5982F917080FFFBCF8091D80092
:1030C0008F7D8093D8008091E1008F7E8093E10016
:1030D0008091E2008F7E8093E2008091E200816027
:1030E0008093E20080916803882309F452C084E051
:1030F000809367030E9494120E94DB0710924203A0
:103100008091410381110E94E3170E9492178091E0
:10311000E10083FF27C08091E20083FF23C08091FC
:10312000E100877F8093E10082E080936703109243
:1031300068038091E1008E7F8093E1008091E2003E
:103140008E7F8093E2008091E20080618093E200B4
:1031500042E060E080E00E9426048091F0008860F8
:103160008093F000FF91EF91BF91AF919F918F916C
:103170007F916F915F914F913F912F910F900FBE73
:103180000F901F90189519BC10926703109240037E
:1031900069CF8091E30087FD93E090936703AACF06
:1031A00061E00C94A817809139038695815009F449
:1031B00084E261E00C94A8178091390386958F5FB3
:1031C000853208F081E061E00C94A81790913903F2
:1031D00090FF07C09695981720F0961710F40C945E
:1031E000DC180C94D018CF92DF92EF92FF92CF931D
:1031F0006B017C01C701AA27BB27C0E10097A1058D
:10320000B10519F4D701CB01C0E0492F5A2F6B2F1C
:103210007727411551056105710519F0C85FDB017C
:10322000CA01AC01BD01E4E07695679557954795D5
:10323000EA95D1F7411551056105710519F0CC5F8B
:10324000DB01CA01AC01BD0132E076956795579567
:1032500047953A95D1F7411551056105710519F06A
:10326000CE5FDB01CA01B695A79597958795892B07
:103270008A2B8B2B09F0CF5F0E947B0B0E94780B6F
:103280000E94750B0E94720BEFEFEC0FE73008F015
:1032900064C0F0E0E75FF44D0C945D290E94840B5C
:1032A0008091650281110CC00E94E31760E081E00B
:1032B0000E94A81720E048EF60E780E00E94EB1032
:1032C000C701B601CF91FF90EF90DF90CF900895A6
:1032D0000E94810B809165028111F2CF0E94E31759
:1032E00060E081E00E94A81720E042EF6CEC8BE4E4
:1032F000E5CF0E94840B0E94810B809165028111B1
:10330000DFCF88E090E00E947729609339037093C3
:103310003A0380933B0390933C0360FF25C0862FC4
:1033200081608093390386950E94D018809139037B
:1033300086950E94D01821E040913C0360913B03A8
:1033400080913A03BBCF0E94840B0E947E0BD5CFA5
:103350000E94840B0E94810BF8CFC13009F4A0CFEA
:10336000C23009F4B7CFC9CF0E94C311A9CF0E94C0
:10337000F3186093050370930603809307039093FB
:1033800008030C946F120F931F9341E050E060E02C
:1033900070E004C0440F551F661F771F8A95D2F74F
:1033A000CB01BA01609570958095909500910503C9
:1033B00010910603209107033091080360237123C5
:1033C000822393231F910F910C94B7199091DC02E3
:1033D000809589238093DC02282F277071F4282F91
:1033E000082E000C330B9217130639F0859585953E
:1033F00085950E94C3191092DC0208950F931F93C4
:1034000041E050E060E070E004C0440F551F661FCB
:10341000771F8A95D2F78091050390910603A091BA
:103420000703B09108038A019B01082B192B2A2B53
:103430003B2BC901B8011F910F910C94B7194F9202
:103440005F926F927F928F929F92AF92BF92CF9234
:10345000DF92EF92FF920F931F93CF93DF9300D0F1
:1034600000D00F92CDB7DEB76C01FC01838194814F
:10347000892B39F01081F180812F8F218F3F09F046
:103480001BC70F900F900F900F900F90DF91CF916F
:103490001F910F91FF90EF90DF90CF90BF90AF9072
:1034A0009F908F907F906F905F904F9008950E94B3
:1034B000020B082F682F89819A810E944D07E12F06
:1034C000F0E026E0F29EE00DF11D112434E5039FAB
:1034D000E00DF11D1124EE0FFF1FEF54FD4F05917C
:1034E0001491F60182810930FDE51F0709F0F4C04F
:1034F0008823C9F18091F00291E0980F9770887F3E
:10350000953008F4892B8093F0028091F002877047
:103510002FEF829FC00111249595879595958795EA
:103520009927909389008093880090938B008093D3
:103530008A0090938D0080938C004091F00250910E
:10354000F1026091F2027091F3028FE090E00E942C
:10355000952960910503709106038091070390916E
:1035600008030E94F318F60182818111CDC017FF74
:103570001AC1F6018281882309F44DC08091DF02CF
:10358000809366021092DF028091EC02813009F490
:10359000E5C0882309F4DEC0823009F4ECC0843031
:1035A00009F4F0C08FE39CE90197F1F700C0000037
:1035B0005801E894B7F84CE0E42EF12C95010E2C5C
:1035C00002C0369527950A94E2F72F7087E290E0C3
:1035D00031F0822F90E02A3008F0D9C04D960E9439
:1035E0001B1794E0E91AF108ECEFEE16EFEFFE0678
:1035F00029F78091EC02813009F4CFC0882309F4C7
:10360000C8C0823009F4C5C0843009F4CAC08091B2
:1036100066028093DF02F6012281222309F420C38F
:10362000109267020230FCE51F0708F4DDC1063185
:103630003CE5130730F0C8018A5F9C45079708F006
:10364000D3C10E94F90C90930303809302030F30BF
:103650008CE5180709F4A9C108F02AC10830ECE587
:103660001E0709F48CC108F0FDC004302CE51207D8
:1036700009F479C108F0E5C002308CE5180709F4B7
:103680006EC180910203826003301C4509F4FCC0C6
:10369000609102031091030384E090E00E9483296B
:1036A000612F81E290E00E9483290F900F900F908C
:1036B0000F900F90DF91CF911F910F91FF90EF909E
:1036C000DF90CF90BF90AF909F908F907F906F9042
:1036D0005F904F900C9494120A303DE5130751F01F
:1036E0000B309DE5190709F03ECF882309F4C9CEB8
:1036F00081E0A8C1882309F4C4CE8091650291E0DD
:10370000892780936502BDCE033EFCE51F07F1F0DB
:1037100058F4013E3CE51307A1F0023E8CE5180782
:1037200009F025CF81E00AC0043E9CE5190781F02D
:1037300084E0053EECE51E0709F019CF8093EC020A
:1037400002C01092EC020E94070D11CF82E0F6CF6A
:1037500083E0F4CF82EE0E940F1624CF83E00E9414
:10376000900788E10E940F1688E10E94B21583E05D
:103770000E94850717CF82EE0E940F1687E50E94F0
:103780001B1710CF86EE0E941B1788E1F8CF069713
:1037900026CF82EE0E94B2153ACF8CE20E941B1710
:1037A00036CF88E2FBCF033FFCE51F07D9F140F598
:1037B000083D3CE5130791F1093D8CE51807F1F14F
:1037C000073D9CE5190709F026CF26E241EE61EEA0
:1037D000C6010F900F900F900F900F90DF91CF9137
:1037E0001F910F91FF90EF90DF90CF90BF90AF901F
:1037F0009F908F907F906F905F904F900C942E17BA
:10380000053FECE51E07B1F088F0063F2CE51207F6
:1038100009F001CF27E245EE66EEDACF27E245EE6A
:1038200065EED6CF26E241EE60EED2CF27E245EE3E
:1038300064EECECF26E241EE62EECACF28E241E04E
:10384000EFCF8091020380610630ECE51E07E1F0C6
:1038500080910203886007301C45B0F0809102031C
:10386000806212C00B302CE5120709F496C078F480
:1038700009308CE5180709F486C0809102038C603A
:103880000A301C4509F004CF8093020301CF8091D8
:1038900002038B7F0D30ECE51E07B1F3809102032C
:1038A0008D7F0E301C4580F380910203877FECCF23
:1038B0000A3F2CE5120709F45AC048F502318CE59D
:1038C000180709F47AC060F40031ECE51E0709F42A
:1038D00070C0809102038F7B01311C45A9F2D8CEC4
:1038E00004312CE5120709F476C008F46CC00531E8
:1038F0001C4509F0CDCE8091020382FB992790F9F7
:1039000021E0922790FB82F990FB83F9BDCF0D3F18
:103910009CE5190709F445C070F40B3FFCE51F074F
:1039200051F1809103038E7F0C3F1C4509F0B0CE0E
:1039300080930303ADCE0F3F3CE5130709F447C066
:1039400040F101151D4509F0A3CE80910303982F86
:10395000909591708E7F892B90FB81F9E9CF8091B2
:103960000203816091CF8091020384608DCF8091AA
:1039700003038160DDCF809103038260D9CF809102
:103980000203806481CF0E949412809102038068B8
:103990007BCF809103038360CBCF809102038E7F26
:1039A00073CF809103038D7FC3CF809102038F7EFD
:1039B0006BCF809102038F7D67CF0E94941280911C
:1039C00002038F7761CF80910203837F5DCF809167
:1039D00003038C7FADCF0E94941290910203892F34
:1039E00097FB87F9805850CF9091DF02892F827220
:1039F000F801E25CFC45E431F10508F0AEC0E05F9F
:103A0000F44D0C945D298091390380FF17C00F900D
:103A10000F900F900F900F90DF91CF911F910F910A
:103A2000FF90EF90DF90CF90BF90AF909F908F90DE
:103A30007F906F905F904F900C94C3118160809342
:103A4000390386950F900F900F900F900F90DF9194
:103A5000CF911F910F91FF90EF90DF90CF90BF908B
:103A6000AF909F908F907F906F905F904F900C944D
:103A7000D01843ED58E16CED78E10F900F900F9066
:103A80000F900F90DF91CF911F910F91FF90EF90CA
:103A9000DF90CF90BF90AF909F908F907F906F906E
:103AA0005F904F900C94E7074CED58E163ED78E19F
:103AB000E4CF41EB51E16AEB71E1DFCF4AEB51E139
:103AC00061EB71E1DACF49E951E165EA71E1D5CF06
:103AD00045EA51E169E971E1D0CF41E851E16DE892
:103AE00071E1CBCF4DE851E161E871E1C6CF40E330
:103AF0005DE06FE17DE0C1CF4FE15DE060E37DE03F
:103B0000BCCF65E082E00F900F900F900F900F9068
:103B1000DF91CF911F910F91FF90EF90DF90CF90A9
:103B2000BF90AF909F908F907F906F905F904F90DD
:103B30000C94E61868E086E0E6CF6EE089E0E3CF1B
:103B400064E18FE0E0CF67E185E1DDCF88E17ACF06
:103B500062E289E1D8CF83E275CF0115ECE51E075B
:103B600059F10E3DFCE51F0709F463C006311C4501
:103B700009F07AC09A7A81E009F480E080936802C3
:103B800089E2911185E30E94F0060F900F900F904B
:103B90000F900F90DF91CF911F910F91FF90EF90B9
:103BA000DF90CF90BF90AF909F908F907F906F905D
:103BB0005F904F900C9480060E9494122FEF34E394
:103BC0008CE0215030408040E1F700C00000F894C4
:103BD00081E08093E00080E28093D8001092C900D9
:103BE000EFE1FEE43197F1F700C000001DBA10923A
:103BF00068001CBC10BE1FBA10927A0010926E00B2
:103C000010926F0010927100109272001092C90011
:103C10001092BC0014B817B81AB81DB810BA109298
:103C2000BC0015B818B81BB81EB811BA0C94003FE8
:103C300028CC0F900F900F900F900F90DF91CF91A5
:103C40001F910F91FF90EF90DF90CF90BF90AF90BA
:103C50009F908F907F906F905F904F900C94500D3D
:103C600006311C4509F43FC0F60100811181222371
:103C700009F443C0C8010E94020BF82E682FC80146
:103C80000E944D07B8018F2D0E94D5088C01B82ED7
:103C9000F601E580E2943FE0E322F280F110109219
:103CA000DE028091DC02877079F0FF2069F080E20B
:103CB000800F883048F082E00E94E6198091DC0293
:103CC0008770AA24A3948111A12C912E92942FE0A5
:103CD0009222FBE0F91508F44AC0E92DF0E0EC5D12
:103CE000F44D0C945D2980916802811104C089E231
:103CF0000E94C5064ACF85E3FBCFC8010E94240776
:103D0000F82EC0CF212F2F70E22E107F19F0E294F1
:103D100090EFE922FF20C9F0EE2069F080E2800FE9
:103D2000883010F0B1100BC08091DF02E82AE092D9
:103D3000DF020E948006802F0E940F1618C080911B
:103D4000DE02E82AE092DE02F4CF802F0E94B21554
:103D5000EE2069F0E094005E083010F0B1103CC035
:103D60008091DF02E822E092DF020E948006292D86
:103D70002850330B2430310510F40E94DB07AA20B1
:103D800009F47FCB8091DC0280FD7BCBF6011282AF
:103D90008595859585950E94FE19C6010E941F1A7A
:103DA0008091DC028595859585950F900F900F90F9
:103DB0000F900F90DF91CF911F910F91FF90EF9097
:103DC000DF90CF90BF90AF909F908F907F906F903B
:103DD0005F904F900C94C3198091DE02E822E0922C
:103DE000DE02C3CF312F3F70832E107F103219F0C7
:103DF000829480EF8822802FBB2041F091E0B91699
:103E000031F1FF2079F1EE2041F195CFFF2091F0C3
:103E10009091E002882D892BE11003C00E94A50734
:103E2000A6CFE1E0EE12FACF891709F4A0CF809374
:103E3000E0029DCFE11006C00E947A06882D0E9404
:103E40009A0795CFF1E0EF1609F491CFF5CFFF2057
:103E500031F021E02E1508F48ACF882DDFCFE11054
:103E600086CFECCFEE2051F3893349F43FEF87EE54
:103E700093E0315080409040E1F700C00000802F77
:103E80000E94B21574CF812F86958695837061F05C
:103E9000813009F06CCFC8019370F11002C090E03E
:103EA00080E00E94AF0763CFC8019370F11002C099
:103EB00090E080E00E94C5075ACFFF2009F1053F3E
:103EC00099F0063FB9F0043F49F48091690290915E
:103ED0006A02816090936A0280936902802F0E9437
:103EE000E8050E94591243CF8091690290916A02BD
:103EF0008260F0CF8091690290916A028460EACF7B
:103F0000053F89F0063FA9F0043F49F4809169021A
:103F100090916A028E7F90936A0280936902802F4B
:103F20000E942305DECF8091690290916A028D7F05
:103F3000F2CF8091690290916A028B7FECCF812F42
:103F4000837009F066C0F11012CF802F829586959C
:103F50008770880F880F602F6F70462E512C712C40
:103F6000612C082E04C0440C551C661C771C0A9456
:103F7000D2F740E050E0BA0104FF0FC04FE050E03C
:103F800060E070E004C0440F551F661F771F8A95DC
:103F9000D2F74095509560957095812F86958695BE
:103FA0008370823019F1D8F40091E1021091E2029D
:103FB0002091E3023091E402813069F044295529CF
:103FC00066297729CB01BA016023712382239323C9
:103FD0000E948A12CCCE402A512A622A732ACB012F
:103FE000BA016429752986299729F2CF44295529D0
:103FF000662977290091E1021091E2022091E30203
:104000003091E402CB01BA01602771278227932700
:10401000DFCF8695FF2011F0812F8170882309F46E
:10402000A6CE802F829586958770880F880F602F87
:104030006F70462E512C712C612C082E04C0440C3C
:10404000551C661C771C0A94D2F740E050E0BA0178
:1040500004FF0FC04FE050E060E070E004C0440F88
:10406000551F661F771F8A95D2F74095509560952A
:104070007095812F869586958370823019F1D8F4DA
:104080000091050310910603209107033091080366
:10409000813069F04429552966297729CB01BA0175
:1040A00060237123822393230E94B71960CE402A94
:1040B000512A622A732ACB01BA01642975298629FB
:1040C0009729F2CF442955296629772900910503BC
:1040D000109106032091070330910803CB01BA0128
:1040E0006027712782279327DFCF1F70FF2029F0D9
:1040F000812F0E94FE19802F91CE802F0E949A0757
:10410000812F0E94C31933CE802FE2EFBE1609F42F
:104110004EC0EB1578F0F0EFBF1619F121EFB21693
:1041200009F43DC0FF2009F465C0E11004CE812FE1
:104130008F713AC033EFB31609F43EC094EFB91251
:10414000F1CFFF2009F44BC01F71812F0E94FE198F
:10415000F8E01F9FC001112483608093DC02812F4F
:1041600023C0FF20B9F0E11002CE1F7161E070E0C2
:1041700080E090E004C0660F771F881F991F1A9592
:10418000D2F70091050310910603209107033091A7
:104190000803A6CFE1E0EE1508F4E9CDE6CF812FC4
:1041A0008F71FF2009F4ADCF0E94FE19E0CD812F61
:1041B0008F71FF20C9F3A5CF60E070E0CB01FF2035
:1041C00009F472CF1F7161E070E080E090E004C0FC
:1041D000660F771F881F991F1A95D2F765CF81E068
:1041E0000E94E61921E02E1508F0C1CD82E00E9460
:1041F000E619BDCDE11038CE812F8F7182CFE2EF6D
:10420000BE16D1F1EB1500F1F0EFBF1649F121EF29
:10421000B216D1F180916B02EE2009F441C08823DF
:1042200041F080916C0291E0892780936C0210929A
:104230006B02802FF11080CD0E94B21586E0F6014E
:1042400011928A95E9F793CD34EFB316C1F0B31606
:1042500088F085EFB812DECFF11089CD81E007C07C
:10426000FF2009F484CD80916C0291E0892780932E
:104270006C027DCD81E0F826F0926C0278CDF110D1
:1042800076CD10926C0273CDFF2039F080916B02D5
:10429000882349F310926B026ACDEE2021F367CD9B
:1042A000882309F464CDF11062CD80916C0291E015
:1042B000892780936C02EECF85E0DE011196019094
:1042C0000D928A95E1F7F601228189819A81211167
:1042D000EEC80E942407082FF2C81F93CF93DF93E4
:1042E00080917202807FC1F480916F028823A1F0D7
:1042F0008091A402C091730260916D0270916E0270
:104300004091700250917102D62FD723DA01A09507
:10431000B09516E0C81304C0DF91CF911F910895A6
:1043200090E04115510511F0DF3F31F4019687709F
:10433000F1CF2A0F3B1F17C0189FF001199FF00DF6
:104340001124EC58FD4F21812713F0CF2081261333
:10435000EDCF22812111EACF238134812417350743
:1043600040F3241B350B283C310500F720917202E5
:104370002F7020612093720226E0289FF001299F70
:10438000F00D1124E758FD4F80818F70806180838C
:104390008DE692E00E941F1ADF91CF911F910C943D
:1043A0007B07BF92CF92DF92EF92FF920F931F9302
:1043B000CF93DF93CDB7DEB761970FB6F894DEBF2A
:1043C0000FBECDBF8C0185E0F801DE011D96019086
:1043D0000D928A95E1F7D8012C9111963C91119795
:1043E0001296EC9012978091700290917102009752
:1043F00009F463C140916D0250916E02642F6523F0
:104400006F3F09F45AC11396CD90DC90B0906F02C3
:10441000BB2009F413C1C816D906C0F1F601E81B88
:10442000F90BCF01FF24F394883C910508F0F12C9F
:1044300080917202982F907FFF2009F4C1C09111E2
:104440007DC0FE2C531327C0421325C0E11023C0AA
:104450008F708061809372028DE692E00E941F1A35
:1044600080917202D80115968C938F2D61960FB6AC
:10447000F894DEBF0FBECDBFDF91CF911F910F919A
:10448000FF90EF90DF90CF90BF900895809590952A
:104490008C0D9D1DC7CFCD2829F0822F83238F3F00
:1044A00009F035C180E0B82FB170DB2E80FF3CC031
:1044B0008091A4024091730256E0841315C02D87A9
:1044C0003E878D859E850E94440B292F22952F7053
:1044D0002230F0F0243018F59F70F1F0F80195814A
:1044E000907FD1F4D12C1EC090E0589FF001599FCD
:1044F000F00D1124EC58FD4F6181361306C0608128
:10450000261303C06281E6120FC001968770D5CFD3
:104510009F7011F0882331F3805E883018F3C80152
:104520000E941F1AFD2CA1CFEE2009F49ECF80918E
:104530007202816080937202F12C97CF531313C0E3
:10454000421311C0E1100FC0D80115968C93C80119
:104550000E941F1A86E0F801ADE6B2E001900D92CC
:104560008A95E1F782CF2D873E878D859E850E94B3
:104570004E0B882309F1EE20F9F08091720280320F
:1045800070F020916D0230916E0238872F8319866A
:10459000DB86CA868C87CE0107960E941F1A86E0AA
:1045A000F801ADE6B2E001900D928A95E1F70E9424
:1045B0006D21FF24F39459CFC8010E941F1AF9CF2F
:1045C00091110CC08DE692E00E941F1A86E0EDE684
:1045D000F2E0DF011D928A95E9F747CF531312C02D
:1045E000421310C0E1100EC0F8018583C8010E947B
:1045F0001F1AEDE6F2E086E0DF011D928A95E9F7E9
:10460000FB2C33CF2D873E878D859E850E944E0BD8
:10461000882391F2EE2081F280917202803208F4B8
:10462000BECF20916D0230916E023A8329831B82A6
:10463000DD82CC828E83CE010196AFCFC816D9061B
:1046400040F0C81AD90AB8ECCB16D10448F0F12CC6
:10465000BDCF809590958C0D9D1D883C9105B8F738
:10466000FE2CEE2009F4A8CF531316C0421314C039
:104670008091720280FD6ECF982F907F09F46ACFEF
:10468000F8018583903F09F462CF982F907F905F67
:104690008F70892B85835BCF2D873E878D859E8587
:1046A0000E944E0B81117BCF8091720281608093BA
:1046B0007202C8010E941F1AD8CEEE2009F47CCFE6
:1046C0002D873E878D859E850E944E0BF82E882370
:1046D00009F472CF86E0F801ADE6B2E001900D92E8
:1046E0008A95E1F780916D0290916E020E94440BD1
:1046F00092959F70963041F480916C0291E08927E9
:1047000080936C0290936B020E946D21AECE81E08B
:104710008E25C9CE1F93CF93DF93CDB7DEB76797B2
:104720000FB6F894DEBF0FBECDBF6D8B7E8B8F8B27
:104730008E899F89892BE1F0852F84238F3F09F093
:1047400098C05FEF4FEF14C030916C02332309F42F
:104750004EC0E42FF0E036E0539FE00DF11D112430
:10476000EE0FFF1FEB5BFE4F40815181822B8C933C
:104770001A8A198A4B8B5C8B85E0FE017396DE01E9
:104780001D9601900D928A95E1F786E0FE013D9617
:10479000DE01179601900D928A95E1F7CE010796FA
:1047A0000E94D121811112C086E0FE013796DE0100
:1047B000119601900D928A95E1F78A859B85892B48
:1047C00029F08F81988589238F3FC9F516E0809164
:1047D000A40290917302891320C067960FB6F894D3
:1047E000DEBF0FBECDBFDF91CF911F9108958095A1
:1047F0008223BDCF96E0929FD001939FB00D1124EC
:10480000AC58BD4FFE01319601900D929A95E1F79B
:10481000809373020E947B07D9CF819FC00111242E
:104820008C589D4F0E94D1218823B9F28091A40217
:1048300090E00196877099278093A402C8CF2091B9
:10484000730230E0C9010196877099274091A40254
:104850004817190679F60E9494121092730210926A
:10486000A40286E0EDE6F2E0DF011D928A95E9F709
:10487000ADCF81E090E0042E01C0880F0A94EAF7E2
:10488000A52FB0E0A95ABD4F2C913D8931115CCFC5
:10489000322F38235BCF8F929F92AF92BF92CF92ED
:1048A000DF92EF92FF920F931F93CF93DF9380914C
:1048B000130190911401892B91F0809110028F5F68
:1048C0008093100281110BC00E94180E90E090930B
:1048D000140180931301892B11F40E947F0C04EFC3
:1048E00012E07801C0E0912C37E0C32ECC0E8C2F63
:1048F0000E94C40D8C2D0E94C40D8C2F0E94DB11D0
:10490000D7019D917D01D12C891729F0FD013197A7
:104910008083DD24D3948C2D0E94DB11F7019681D6
:10492000891709F466C0868381E08D29982A0E9440
:10493000870BCF5FC730C1F60E944D126AEF70E05F
:104940000E943529882ED0910F02DD2309F45DC025
:1049500010920F02E091EA02F091EB027F012EE04B
:10496000E20EF11C40E0CBEF2AEFC22ED12C519188
:104970005B3F81F0652F70E0282D392F8517D8F126
:10498000261B370B2E313105E4F19F0121503109EF
:10499000D901CC93EE16FF0651F740930F02911008
:1049A00002C0411134C010920E02A091EA02B091EF
:1049B000EB0220910F02ECE0F3E04AE153E090E0DB
:1049C0006191E80139918E01631751F06C916B3F51
:1049D000D1F48C93BF0161507109EB01388321E060
:1049E00011964E175F0761F720930F0290930E0206
:1049F00012C080E09ACFD601A61BB70B2A0F3B1F2F
:104A0000C1CF4D2FC7CF91E0EBCF9110CCCF90917C
:104A10000E029111C8CF892DDF91CF911F910F9177
:104A2000FF90EF90DF90CF90BF90AF909F908F90CE
:104A30000895CDB7DEB72A970FB6F894DEBF0FBE44
:104A4000CDBF84B7877F84BF0FB6F894A8958091B7
:104A50006000886180936000109260000FBE80E863
:104A600090E00FB6F89480936100909361000FBEC0
:104A700085B7806885BF85B7806885BF0E948D0334
:104A80000E9458048091E20084608093E200789450
:104A9000809167038823A1F01091E9001F70909125
:104AA000EC00892F817090FD80E8182B1092E900AE
:104AB0008091E80083FD0E94A9121F701093E90005
:104AC00082E084BD93E095BD9AEF97BD80936E0020
:104AD0000E94180E90E090931401809313010E949D
:104AE000870B0E94960BA4EFB2E01AE1E12E13E0CF
:104AF000F12EECE0F3E011921D92EE16FF06D9F7CD
:104B00008EE090E00E94B7298093EA029093EB0236
:104B1000FC010E962BEF21938E179F07E1F790E093
:104B200080E00E947D298F3E9E4F11F00E94500D23
:104B30008CE090E00E946F2990E0B0E0A0E08093CC
:104B4000EC029093ED02A093EE02B093EF0289EA9B
:104B50008093800089E08093810024982C983F986E
:104B60008AB18F7C8AB96E98479A8BB180638BB972
:104B7000769A8FE090E00E9477296093F00270931C
:104B8000F1028093F2029093F30267704FEF649FFB
:104B9000B001112475956795759567957727709382
:104BA00089006093880070938B0060938A007093F3
:104BB0008D0060938C000E947F0C90E080E00E944A
:104BC0007D298F3E9E4F11F00E94500D82E090E0B3
:104BD0000E946F29809324030E94F90C9093030391
:104BE0008093020383E090E00E946F29682F70E0B9
:104BF00090E080E00E948A1280910403811136C007
:104C000090E080E00E947D298F3E9E4F21F00E941F
:104C1000500D0E94410D88E090E00E94772960933A
:104C2000390370933A0380933B0390933C036E7F68
:104C300071F40E94410D88E090E00E947729609312
:104C4000390370933A0380933B0390933C030E9493
:104C5000EC0710923F038091390380FF04C060E0AD
:104C600086950E94A81781E0809304036091050354
:104C70007091060380910703909108030E94F31836
:104C800085E191E090930A0380930903F1E5CF2E2B
:104C9000F5E0DF2E80916703853009F49EC00E9405
:104CA0004B24E5E2F3E0ACE0B3E010E000E0302FAD
:104CB0008D912191281709F4FCC090E0BB24B39496
:104CC0002827422F4B2109F4EFC099833A838B2187
:104CD00091E009F490E09B830E944D128160782F4F
:104CE0009D838C8349815A816B818D810E948A23A7
:104CF000F801EB5DFC4F8081B826B08280912103E2
:104D0000909122030E9450069C01909120039923C8
:104D100019F02431310578F020911C03B0901D0367
:104D200000911E0310911F032111DAC08B2D802BDF
:104D3000812B09F0A8C10E94DB07909123038917FA
:104D400021F00E94DB078093230380913F03882397
:104D500009F4A0CF80913E03E0913903E695E81B6A
:104D6000E0933503823009F01FC1F0E0E15AFA4FB9
:104D7000E4910E2F10E0E7ECAE2EE0E1BE2E809124
:104D80003603882389F0109236030E944D12980151
:104D900020953095820F931F9093340380933303B3
:104DA00010923803109237038091330390913403AB
:104DB0000E9450068017910708F46CCFE0913303EE
:104DC000F09134030E0F1F1F10933403009333032D
:104DD00083E393E0F50109955DCF8091670384300B
:104DE00009F441C010920B0388E190E020E40FB673
:104DF000F894A895809360000FBE209360001092F5
:104E00003F0380914203811117C081E080934203E8
:104E100080913903982F9170909341038E7F8093F6
:104E200039032FEF40E782E0215040408040E1F716
:104E300000C000000E948F0E83B7817F846083BF13
:104E400083B7816083BF7894889583B78E7F83BF53
:104E50000FB6F894A89580916000886180936000F7
:104E6000109260000FBE80916603882309F412CF70
:104E70000E94180E90E090931401809313010E94F9
:104E8000870B0E94960BECE0F3E01192EE16FF0602
:104E9000E1F70E944B24ECE0F3E081918111DDC049
:104EA000EE16FF06D1F7F6CE9F5FBB0C963009F0E9
:104EB00008CF0F5F1F4F0E30110509F0F8CE8FEFAE
:104EC0008E838F8318860E944D128160782F9A8777
:104ED00089874E815F8168858A850E948A230ECFEB
:104EE0009F3F19F09F5F90932003121624F40E94B5
:104EF000C40580931C0380911C0387FF05C00E949A
:104F0000C405819580931C031B1424F40E94C405DE
:104F100080931D0380911D0387FF05C00E94C40577
:104F2000819580931D0330911C033323A1F02091C0
:104F30001D03222381F045EB3403C0011124992382
:104F400059F190931C0345EB240390011124332362
:104F500039F130931D03101624F40E94A2058093AA
:104F60001E0380911E0387FF05C00E94A205819544
:104F700080931E03111624F40E94A20580931F0340
:104F800080911F0387FF05C00E94A2058195809331
:104F90001F030E945912CFCE81E080931C03D3CF10
:104FA00081E080931D03D7CF863059F4F0E0E45AB6
:104FB000FA4FE4910E2F10E07BEDA72E70E1B72E93
:104FC000DECE893061F4E695F0E0E75AFA4FE491DD
:104FD0000E2F10E06DE3A62E6FE0B62ED0CE8F30F0
:104FE00061F4E695F0E0EA5AFA4FE4910E2F10E0F2
:104FF00057E6A52E5FE0B52EC2CE853159F4F0E01C
:10500000ED5AFA4FE4910E2F10E046EDA42E4FE03A
:10501000B42EB5CE08EE13E096E2A92E90E1B92E9B
:10502000883109F4ACCE833241F4F6010591149134
:105030003CE6A32E30E1B32EA2CE04EF11E024E033
:10504000A22E2FE0B22E843209F499CE00ED17E0A3
:105050008FE1A82E85E0B82E92CE80E189BD82E155
:1050600089BD09B400FEFDCF8091D8008F7D80936B
:10507000D8008091E00082608093E0008091E000A1
:1050800081FDFCCF07CE9F3F09F02CCF3DCF1F9273
:105090001FB61F9211248F939F93AF93BF9380915C
:1050A0000B03811113C08091E5029091E602A0915B
:1050B000E702B091E8024196A11DB11D8093E5027F
:1050C0009093E602A093E702B093E802BF91AF91FC
:1050D0009F918F911F901FBE1F9018951092B9003D
:1050E0008CE08093B8000895EF92FF920F931F9386
:1050F000CF93DF93182FEB011092BC0084EA8093CA
:10510000BC000E944D127C018091BC0087FF27C02B
:105110008091B900887F883029F08091B900887F1C
:105120008031D9F51093BB0084E88093BC000E94C5
:105130004D128C018091BC0087FF24C02091B900E2
:10514000287F90E080E02831B1F081E090E02034C9
:1051500011F490E080E09195819591090CC0CF3FCA
:10516000DC0791F20E944D128E199F098C179D0742
:1051700058F28EEF9FEFDF91CF911F910F91FF902B
:10518000EF900895CF3FDC07A9F20E944D12801BDB
:10519000910B8C179D0770F2ECCF8FEF9FEFEBCF49
:1051A0000F931F93CF93DF93EB018093BB0084E8B1
:1051B0008093BC000E944D128C018091BC0087FF3F
:1051C00011C02091B900287F81E090E0283211F4CD
:1051D00090E080E0919581959109DF91CF911F91A9
:1051E0000F910895CF3FDC0741F30E944D12801BC1
:1051F000910B8C179D0708F38EEF9FEFEECF0F9367
:105200001F93CF93DF93EC0184E88093BC000E944E
:105210004D128C018091BC0087FF08C08091BB00BB
:1052200090E0DF91CF911F910F910895CF3FDC0760
:1052300089F30E944D12801B910B8C179D0750F330
:105240008EEF9FEFEECF84E98093BC00089587FB3B
:10525000082E062687FD819567FD61950E946329CA
:105260000EF4919507FC81950895AA1BBB1B51E193
:1052700007C0AA1FBB1FA617B70710F0A61BB70BC6
:10528000881F991F5A95A9F780959095BC01CD016B
:10529000089597FB072E16F4009407D077FD09D0E8
:1052A0000E94352907FC05D03EF4909581959F4FCB
:1052B0000895709561957F4F0895EE0FFF1F05903B
:1052C000F491E02D0994991B79E004C0991F961779
:1052D00008F0961B881F7A95C9F780950895F9996B
:1052E000FECF92BD81BDF89A992780B50895A6E1B9
:1052F000B0E044E050E00C94A929A8E1B0E042E01D
:1053000050E00C94A929262FF999FECF92BD81BDBA
:10531000F89A019700B4021639F01FBA20BD0FB6F3
:10532000F894FA9AF99A0FBE08950396272F0E94CF
:1053300084290E948329252F0E948429242F0C94DC
:1053400084290196272F0E9484290C948329DC014B
:10535000CB01FC01F999FECF06C0F2BDE1BDF89A80
:10536000319600B40D9241505040B8F708950F9314
:105370001F93CF93DF938230910510F482E090E089
:10538000E0917303F091740330E020E0B0E0A0E01E
:10539000309799F42115310509F447C0281B390BC2
:1053A00024303105C0F58A819B816115710571F149
:1053B000FB0193838283FE0111C0408151810281F0
:1053C000138148175907F8F04817590799F41097AF
:1053D00061F012960C93129713961C933296CF019C
:1053E000DF91CF911F910F91089500937303109354
:1053F0007403F4CF2115310519F04217530718F43F
:105400009A01BD01EF01DF01F801C2CF909374034F
:1054100080937303D0CFFE01E20FF31F819391932A
:105420002250310939832883DACF209171033091DA
:105430007203232B41F42091020130910301309338
:105440007203209371032091000130910101211515
:10545000310541F42DB73EB740910401509105014B
:10546000241B350B4091710350917203421753076F
:1054700008F0B5CF241B350B2817390708F4AFCF38
:10548000BC016E5F7F4F2617370708F4A8CF640F63
:10549000751F7093720360937103FA018193919366
:1054A0009ECFCF93DF930097E9F0FC0132971382F0
:1054B0001282C0917303D0917403DE0130E020E0CA
:1054C0002097A1F420813181820F931F20917103D5
:1054D000309172032817390709F067C0F0937203FF
:1054E000E0937103DF91CF910895DA01AE17BF0702
:1054F00008F040C012964D915C9113979D014115A3
:10550000510599F7D9011396FC93EE9312974D919B
:105510005D91A40FB51FEA17FB0779F48081918193
:105520000296840F951FD90111969C938E938281C8
:10553000938113969C938E931297B0E0A0E08A819A
:105540009B810097B9F5FE0181919191E80FF91FB8
:1055500080917103909172038E179F0719F610972F
:1055600061F51092740310927303D0937203C09389
:105570007103B8CFB383A28340815181840F951FFB
:10558000A817B90771F44E5F5F4F8D919C911197E9
:10559000480F591F5183408312968D919C9193839C
:1055A00082832115310509F0ADCFF0937403E093A8
:1055B000730398CFDE01EC01C2CF13961C921E92AA
:1055C0001297D3CFFC014150504030F001900616A5
:1055D000D1F73197CF010895882799270895F89436
:1055E000FFCF5D0B5D0B660B660B680B660B660BE6
:1055F000660B5D0B5D0B6D0B660B660B6D0B8C13F9
:10560000B4135615B4135615E7130814561511158F
:105610001E154E196819A5197919A319AA19A819DF
:10562000031D391D541D591D5E1D631D681D6D1D13
:10563000721D771D7C1D781B811D9A1D9D1DA01D4F
:10564000A31DA61DA81DAB1D821E821EF21EF21EEA
:10565000431F5D1FFF20B71E9F1F752084208420DD
:1056600000007503200001191A1B1C1D1E1F20219C
:1056700022010220002005390C0E0CD80B9D0B01D5
:105680000001020202020606060909090909090FBA
:105690000F0F0F0F0F1515151819191919191919B9
:1056A0001919192324000D010D020D030D040D0518
:1056B0000D000C010C020C030C040C050C000B017A
:1056C0000B020B030B040B050B000A010A020A0371
:1056D0000A040A050A000901090209030904090567
:1056E000090008010802080308040805080007016A
:1056F0000702070307040705070006010602060361
:105700000604060506000501050205030504050556
:105710000500040104020403040404050400030159
:105720000302030303040305030002010202020350
:105730000204020502000101010201030104010546
:0E57400001000001000200030004000500004B
:00000001FF
