:100000000C946E030C948B030C948B030C948B0355
:100010000C948B030C948B030C948B030C948B0328
:100020000C948B030C948B030C94AF160C94BE149D
:100030000C9411270C948B030C948B030C948B035E
:100040000C948B030C948B030C948B030C948B03F8
:100050000C948B030C9479110C948B030C948B03EC
:100060000C948B030C948B030C948B030C948B03D8
:100070000C948B030C948B030C948B030C948B03C8
:100080000C948B030C948B030C948B030C948B03B8
:100090000C948B030C948B030C948B030C948B03A8
:1000A0000C948B030C948B030C948B0300010101C3
:1000B0000101010101010202020202020202020325
:1000C00003030303030303040404040404040505F5
:1000D00005050506060606060707070707080808B8
:1000E00008090909090A0A0A0B0B0B0C0C0C0D0D67
:1000F0000D0E0E0E0F0F0F101011111112121313FF
:100100001414151516161717181819191A1A1B1B77
:100110001C1D1D1E1E1F20202122222324242526D3
:1001200026272829292A2B2C2D2D2E2F303132320B
:10013000333435363738393A3B3C3D3E3F40414217
:10014000434445464748494A4C4D4E4F50515354FD
:10015000555658595A5B5D5E5F61626465666869B1
:100160006B6C6D6F7072737577787A7B7D7E808231
:10017000838587888A8C8E8F91939596989A9C9E7A
:10018000A0A2A3A5A7A9ABADAFB1B3B5B7BABCBE8A
:10019000C0C2C4C6C9CBCDCFD1D4D6D8DBDDDFE257
:1001A000E4E7E9EBEEF0F3F5F8FAFDFFFFAA7F557F
:1001B000402223252628292A2C2D2F30323335366C
:1001C000383A3B3D3E4042434547494A4C4E5051E8
:1001D000535557595A5C5E6062646668696B6D6F0F
:1001E00071737577797B7D7F81838587898A8C8E12
:1001F00090929496989A9C9E9FA1A3A5A7A8AAAC1A
:10020000AEAFB1B3B4B6B8B9BBBCBEBFC1C2C3C553
:10021000C6C7C9CACBCCCDCED0D1D2D2D3D4D5D6F5
:10022000D7D7D8D9D9DADADBDBDBDCDCDCDCDCDD28
:10023000DDDDDDDCDCDCDCDCDBDBDBDADAD9D9D80C
:10024000D7D7D6D5D4D3D2D2D1D0CECDCCCBCAC9A4
:10025000C7C6C5C3C2C1BFBEBCBBB9B8B6B4B3B1D3
:10026000AFAEACAAA8A7A5A3A19F9E9C9A9896946E
:1002700092908E8C8A89878583817F7D7B79777543
:1002800073716F6D6B6968666462605E5C5A595722
:10029000555351504E4C4A4947454342403E3D3BE1
:1002A0003A3836353332302F2D2C2A29282625236B
:1002B000224A004D642961D75C350000001E0014FD
:1002C0000004001D0034004B001F001A0016001B24
:1002D000002E002A42200008000700060050002CD3
:1002E0004121001500090019004F00035322001797
:1002F000000A00050000004C001507015300002E05
:10030000650000E30017070253000025630000E7C3
:100310000023001C000B00110000004900240018FD
:10032000000D0010005200010025000C000E0036E8
:100330000051002841260012000F0037002F002B2B
:1003400042270013003300380030004E002D0031EA
:10035000743471D85C2D020000010001000100011D
:1003600000010000003A001E0220022202010001EA
:10037000003B001F0221022302010001003C002F6C
:100380000226022F00010001003D0030022702304A
:1003900000010001003E003102350035020000017D
:1003A0000001000100000001000000010001000147
:1003B0000000000100000001003F00520051002435
:1003C00002000001004000240021001E0001000185
:1003D000004100250022001F0037000100420026D6
:1003E000002300200027000100430025022E0238D0
:1003F000002E000100440045000100010001000042
:1004000000010001000100010001000000010001E5
:100410000001000100010001000100010050000185
:100420000001000100010052005100010001000123
:1004300000010001004F0001000100010001000166
:1004400000010001000000010001000100000001A6
:100450000000000100010001000000010000000197
:10046000000100B60001000100000001000100F4DD
:1004700000F2000100010001000100F000F10001A4
:1004800000010001000100F500F30001000100017E
:10049000000100B70001000100010001000100019E
:1004A00000010001000100000001000100296801B5
:1004B000003500000001000100010001003461016D
:1004C0000001000100010001000100010001000124
:1004D0000001000100010001000100010001000114
:1004E0000001000100010001000100010000000105
:1004F00000010001000000010000000100010001F6
:1005000000000001000000010001000100010001E5
:1005100000000001000100010001000100010001D4
:1005200000010001000100010001000100010001C3
:1005300000010001000100010001000100010001B3
:1005400000010001000100010034780100010000F9
:100550000000047F3F1F643214643214783C1E1E76
:10056000140A0505010902A10185020901A100057E
:1005700009190129051500250195057501810295C7
:1005800001750381010501093009311581257F9528
:10059000027508810609381581257F950175088146
:1005A00006050C0A38021581257F9501750881061C
:1005B000C0C005010980A10185031A81002A8300BA
:1005C000160100260300950175108100C0050C0975
:1005D00001A10185041A01002A9C02160100269C33
:1005E00002950175108100C005010906A10185056C
:1005F000050719E029E71500250195087501810215
:100600000507190029EF1500250195F075018102F4
:1006100005081901290595057501910295017503D4
:100620009101C005010906A101050719E029E71597
:100630000025019508750181029501750881010564
:1006400007190029FF150026FF009506750881008F
:100650000508190129059505750191029501750394
:100660009101C009023B00020100A0FA0904000048
:1006700001030101000921110100012240000705C9
:10068000810308000A090401000103000000092198
:100690001101000122C0000705820320000A120197
:1006A000100100000008EDFE071301000102030124
:1006B00004033000000016034500720067006F005D
:1006C00064006F007800200045005A000000080315
:1006D0005A005300410000000403090411241FBE06
:1006E000CFEFDAE0DEBFCDBF12E0A0E0B1E0E4EF93
:1006F000F3E502C005900D92AE31B107D9F723E0C2
:10070000AEE1B2E001C01D92A53AB207E1F70E9446
:10071000E3230C94B9290C940000E8EDF0E080810B
:100720008E7F80831092E2001092DA001092E10036
:10073000A0EEB0E08C9181608C9380818F77808374
:1007400019BCA7EDB0E08C918E7F8C9380818F7E59
:1007500080831092700308952091E4003091E500A9
:1007600095E6A9012091EC00822F817020FF06C040
:100770008091E80080FF06C080E008952091E800A5
:1007800022FD1AC080919703882389F0853089F073
:100790008091EB0085FD0FC02091E4003091E500D1
:1007A00042175307F9F29150E1F684E0089582E090
:1007B000089583E0089581E00895EF92FF920F93EA
:1007C0001F93CF937C018B010E94AC03C82F811132
:1007D00017C08091E80085FD0BC08091E8008E77FE
:1007E0008093E8000E94AC03882399F3C82F08C0C7
:1007F000F70181917F018093F1000150110949F7C0
:100800008C2FCF911F910F91FF90EF9008958091C1
:10081000990387FF13C08091E80082FF06C0809192
:10082000E8008B778093E80004C0809197038111E2
:10083000F2CF0895809197038823D9F38091E8003F
:1008400080FFF8CF8091E8008E77ECCF982F9093BF
:10085000E900242F762F50E0891731F07091EC00D9
:100860002091ED005091F00021FD07C09F5F97306F
:1008700071F78093E90081E008953091EB003E7FAD
:100880003093EB003091ED003D7F3093ED003091DF
:10089000EB0031603093EB007093EC002093ED009F
:1008A0005093F0002091EE0027FDE0CF80E0089506
:1008B000CF92DF92EF92FF920F931F93CF93DF932C
:1008C000C8EDD0E088818F7E8883E7EDF0E08081FD
:1008D0008160808384E082BF81E08093700388819F
:1008E0008E7F888302EE10E0F80110821092DA0009
:1008F00081EEC82ED12CF601108288818F778883F3
:1009000088818068888388818F7D888319BC109254
:10091000970310929803109296031092950390EE0D
:10092000E92EF12CF70180818B7F808388818160A3
:10093000888342E060E080E00E942604F601808126
:100940008E7F8083F80180818160808380818860D0
:100950008083F70180818E7F808388818061888396
:10096000DF91CF911F910F91FF90EF90DF90CF908B
:100970000895FC0180919F039091A003861797072B
:10098000A0F06115710529F49091E8009E7790938D
:10099000E80090E06115710551F4911108C0809153
:1009A000E80082FF34C080E00895BC01F2CF80915E
:1009B00097038823C1F18530C1F18091E80083FD60
:1009C00030C08091E80082FDEACF8091E80080FF8E
:1009D000E1CF8091F3002091F200382F611571056D
:1009E00019F02830310558F091E02830310509F030
:1009F00090E02091E8002E772093E800CBCF819102
:100A00008093F100615071092F5F3F4FE7CF8091D4
:100A10009703882341F0853041F08091E80083FFFF
:100A2000BECF81E0089582E0089583E0089580912B
:100A30009703843011F482E0089581E008950895C9
:100A400080917403089590915903803F41F48091FF
:100A50005A0387FD10925A03992371F00895813F3C
:100A600029F480915A031816ACF3F6CF823F81F433
:100A700097FFF2CF1092590380915A0390915B0334
:100A8000892B90915C03892B49F710925D0308959F
:100A9000833F19F4191674F3DFCF893F39F480913D
:100AA0005B031816CCF610925B03D6CF8A3F29F46D
:100AB00080915B0387FFD0CFF6CF8B3F39F48091D5
:100AC0005C0387FFC9CF10925C03C6CF8C3F29F42B
:100AD00080915C031816BCF3BFCF843F31F4809142
:100AE00058038E7F80935803B7CF853F21F48091C0
:100AF00058038D7FF7CF863F21F4809158038B7F79
:100B0000F1CF873F21F480915803877FEBCF883F57
:100B100021F4809158038F7EE5CF8D3F31F4809191
:100B200019038E7F8093190397CF8E3F21F4809114
:100B300019038D7FF7CF8F3F09F08ECF8091190376
:100B40008B7FF0CF8091190380FD16C081FD16C008
:100B500082FD16C080915D038823A1F0883280F465
:100B600028E0829FC001112468E270E00E941328EF
:100B7000862F672B39F0089582E0089584E0089568
:100B800088E0089581E008958091190380FD16C0E2
:100B900081FD16C082FD18C080915D03882391F00D
:100BA0008C3390F423E2829FC00111246CE370E047
:100BB0000E941328862F672B49F0089588E0089536
:100BC00081E1089585E0089583E2089581E0089524
:100BD000803F31F40E94C405819580935A030895A3
:100BE000813F19F40E94C405F8CF823F31F40E947E
:100BF000C4058195809359030895833F19F40E9499
:100C0000C405F8CF893F29F40E94A20580935B03B5
:100C100008958A3F21F40E94A2058195F7CF8B3F6A
:100C200031F40E94A205819580935C0308958C3F66
:100C300019F40E94A205F8CF843F31F48091580343
:100C40008160809358030895853F21F48091580373
:100C50008260F7CF863F21F4809158038460F1CF02
:100C6000873F21F4809158038860EBCF883F21F4BF
:100C7000809158038061E5CF8D3F31F48091190355
:100C800081608093190308958E3F21F480911903A8
:100C90008260F7CF8F3FB9F7809119038460F1CF5D
:100CA000CF92DF92EF92FF920F931F932FB7F8949A
:100CB000409115035091160360911703709118032A
:100CC0002FBF6A017B01EE24FF248C0130E020E07D
:100CD000C016D106E206F30650F0481B590BCA01B4
:100CE0001F910F91FF90EF90DF90CF9008954150AA
:100CF0005109F3CF809110038111109210030895D0
:100D000080910F0390910E03892B90910D03892BF5
:100D100080931E02909110039923A1F0892B809358
:100D20001E0280911F01882341F18091320387FFC9
:100D300024C08EE1E0E2F2E090E0815000F59111F4
:100D40000E947A06E0913903F0913A033097E1F07E
:100D500080911F01882359F08091320387FF07C0DB
:100D600080911E0280931F0285E080931E02028004
:100D7000F381E02D8EE192E0099486E0DBCF2191B2
:100D80002223D9F29F5FD9CF089590911F01992313
:100D9000D1F09091320397FF16C0E82FE695E695C3
:100DA000E695EE31E0F4F0E0E25EFD4F282F27708B
:100DB00081E090E001C0880F2A95EAF78095928142
:100DC000892382830895E0E2F2E09191891303C0C0
:100DD000DF0111971C9292E0E632F907B1F708950E
:100DE00090911F019923C1F09091320397FF14C095
:100DF000E82FE695E695E695EE31F8F4F0E0E25E50
:100E0000FD4F877021E030E001C0220F8A95EAF79C
:100E10008281822B82830895A0E2B2E0EFEF90E01E
:100E20002D91821751F0EF3F19F4211101C0E92FE4
:100E30009F5F9630A9F7EF3F09F408950E2E000C3E
:100E4000FF0BE25EFD4FE6CFE92FEE0FE90FEE0F4D
:100E50008E0F982F977086958695869525E0829FB0
:100E6000F0011124EB52FD4F50E040E080E0219171
:100E700030E0092E02C0369527950A94E2F72170DA
:100E80003327042E01C0220F0A94EAF7822B4F5F0A
:100E90005F4F4530510559F70895E92FEE0FE90FDF
:100EA000EE0F8E0F982F977041E001C0440F9A9576
:100EB000EAF786958695869595E0899FF00111243D
:100EC000EB52FD4F30E020E070E05191DF011197CF
:100ED000CB01022E02C0969587950A94E2F78170A5
:100EE00081958527842385278C932F5F3F4F25305D
:100EF000310559F708958091D4029091A302981377
:100F000001C008958F5F8770FACF882341F08095E4
:100F100090910E03892380930E030C94800608950C
:100F2000882339F090910E03982B90930E030C9424
:100F300080060895882341F0809590910F038923BE
:100F400080930F030C9480060895882339F09091C4
:100F50000F03982B90930F030C9480060895209113
:100F60008502309186022817390771F09093860226
:100F700080938502E0913903F0913A03309721F094
:100F80000084F185E02D0994089520918302309129
:100F900084022817390771F09093840280938302AA
:100FA000E0913903F0913A03309721F00680F78100
:100FB000E02D09940895E0913903F0913A033097B8
:100FC00021F00190F081E02D099480E00895FA016C
:100FD000811101C0FB01099480915003982F9E7FDD
:100FE00029F4817082608093500308958A34E8F375
:100FF00081708864F8CFAF92BF92DF92EF92FF9238
:101000000F931F93CF93DF93082F162FE901E42F3F
:10101000F0E0E455FF4F611111C0E4915E2F4E2FB7
:101020004983E8835A831B82DF91CF911F910F91EF
:10103000FF90EF90DF90BF90AF900895E62EF12CD7
:101040004491D42EE42FF0E026E0829FC0011124C9
:101050002FEF30E0B9010E94FF27802F90E0880F2A
:10106000991F55E5569FD001579FB00D11248A1B3B
:101070009B0B982F990F890F5901AE18BF08AE9E90
:10108000D001AF9EB00DBE9EB00D11245B2F189FF6
:1010900080011124012F11275901A01AB10AAE9E17
:1010A0008001AF9E100DBE9E100D11245901A81A8B
:1010B000B108AE9CC001AF9C900DBE9C900D112458
:1010C000892F9927281B390B2E9FC0012F9F900D28
:1010D0003E9F900D1124E92F62307105A1F050F46C
:1010E0006115710509F49CCF6130710581F0EB2F1A
:1010F000512F96CF6430710569F080F0663071052C
:1011000009F48ECFF4CFE42F4B2F592F89CFE42F42
:10111000412F86CFEB2F542F492F82CF4B2F5D2DA0
:10112000E12F7ECF9091320392FF06C0282F2871C5
:101130002830F9F4877F846093FF06C0282F287138
:101140002831F1F4877E84612091330320FF06C0AB
:10115000382F38713830D9F4877F816021FF06C07D
:10116000282F28712831D1F4877E816194FD877EF4
:101170000895282F24712430F9F68B7F8860DCCF06
:10118000282F2471243101F78B7E8861DDCF382F21
:101190003171313019F78E7F8860E0CF282F2171AF
:1011A000213121F78E7E8861E1CFCF93DF93972F96
:1011B00070E026E0929F600D711D1124FB0134E563
:1011C000839FE00DF11D1124EE0FFF1FEF54FD4F23
:1011D000C591D491CE01C238D105B9F1E8F5C1333A
:1011E000D10509F499C050F5C932D10509F48DC073
:1011F000CA32D10509F497C0C11542E5D40708F0F9
:10120000C4C0C11521E5D20708F038C1C83ED105D8
:1012100008F09DC0C03ED10568F5C83AD10508F078
:1012200089C0C53AD10508F005C1C130D10511F119
:10123000209709F443C02497E8F440C0C533D10592
:1012400009F45CC0C933D105B9F62091320323708B
:1012500089F080EE90E00EC0C33ED10591F168F4B4
:10126000C03ED105F9F0C23ED10531F620913203DE
:1012700022FD20C0DF91CF910895C63ED10561F1D6
:10128000C73ED10581F1C43ED10509F0B5CF20910B
:10129000330321FFEFCF8091320384FD0FC087EE2F
:1012A00090E0E8CF2091320320FD19C13091330343
:1012B00030FFE0CF83EE90E024FFDCCF90E080E0D1
:1012C000D9CF2091320322FD0DC13091330330FD7F
:1012D000C0CF24FFCFCFF2CF2091320323FFCACF5C
:1012E00024FDECCFDCCF2091320323FDFEC03091F2
:1012F000330331FFEECF84EE90E0BCCF2091320378
:1013000025FFB8CF89E290E0B5CF2091320325FFC9
:10131000B1CF85E390E0AECF2091320326FFAACF74
:101320008AE290E0A7CF2091320326FFA3CF81E38A
:1013300090E0A0CFCF3BD10508F6C85AD0E0CC0F43
:10134000DD1FC051DE4F88819981946493CFC11510
:1013500030E2D30760F4C11541E0D40708F08ACF2A
:10136000CE019065C03FD10508F084CFA7CFC1154D
:1013700080E4D80708F4A2CFC11590E5D90708F09A
:1013800061C0CE019F70906A75CFC11526E5D20766
:1013900018F5C11535E5D30708F086C0C11544E539
:1013A000D40708F07CC09C2F96959695AE014370AB
:1013B0005527C115D34508F466C021E030E002C0CE
:1013C000220F331F4A95E2F740E2949FC001112497
:1013D000822B932B9A684ECFC1159AE5D90778F4E2
:1013E000C11529E5D20708F069C0C11538E5D30752
:1013F00008F464CF9C2F8827806F906A3BCFC1157B
:101400004BE5D40708F45ACFC1158CE5D80708F48A
:1014100062C0CE0190568115904208F04FCF8D2FBB
:101420008F710E94920890E0982F882788279F71DB
:101430008C2B42C0C55AD0E0C351DE4F888190E06A
:10144000906418CF9E01E4E036952795EA95E1F780
:1014500023708C2F86958695837030E2839FC00120
:101460001124922BC37021E030E002C0220F331F01
:10147000CA95E2F7822B932B9C68FCCE9C2F882781
:10148000816F906AF7CE21E030E002C0220F331F57
:101490004A95E2F740E2949FC0011124EBCF9C2FC4
:1014A0008827846F906AE6CE8C2F0E94920890E085
:1014B000982F882788279F719062DCCE8C2F8F70A1
:1014C0000E94920834E0D695C7953A95E1F7CF701F
:1014D0009C2F9069CFCECE0199279066CBCE89E321
:1014E00090E0C8CE82EE90E0C5CE86EE90E0C2CE0F
:1014F000BF92CF92DF92EF92FF920F931F93CF9301
:10150000DF938C01C0903503D0903603E090370311
:10151000F09038038091110390911203A09113036E
:10152000B0911403C82AD92AEA2AFB2ACFE1D0E0D5
:10153000BC2ED701C6010C2E04C0B695A795979571
:1015400087950A94D2F780FD0EC0219788F7B12CB9
:101550008B2DDF91CF911F910F91FF90EF90DF9036
:10156000CF90BF900895B8018C2F0E94D5080197A5
:1015700061F3EECFCF93DF93EC010E94780ABE01B6
:10158000DF91CF910C94D5080E94BA0A292F2F70B1
:1015900092959F7092509E3078F4E92FF0E0E554D8
:1015A000F64D0C942728803F19F020F4883E20F453
:1015B00081E00895843FE1F380E00895883EC0F320
:1015C000813FD1F7F5CF822F869586958695089530
:1015D00027982F98089526982E98089525982D9845
:1015E000089556985E980895279A2F9A0895269AF6
:1015F0002E9A0895259A2D9A089584B1807F84B9F2
:1016000085B1807F85B98AB1837F8AB98BB1837FA9
:101610008BB93E984698089580B38C7080BB81B397
:10162000836F81BB0895CF93DF9300D00F92CDB726
:10163000DEB790919703943019F589837B836A8391
:1016400082E08093E9008FEF9091E800815095FD52
:1016500006C095ED9A95F1F700008111F5CF8091C4
:10166000E80085FF0DC050E040E063E070E0CE018F
:1016700001960E94DD038091E8008E778093E80058
:101680000F900F900F90DF91CF910895CF93DF933C
:10169000EC010E941705823011F0843031F4BE0154
:1016A00084E0DF91CF910C94130BDF91CF910895DB
:1016B000BC016058710983E00C94130BCF93DF9346
:1016C000EC010E941705823011F08430F9F482E0B9
:1016D0008093E9008FEF9091E800815095FD06C05E
:1016E00095ED9A95F1F700008111F5CF8091E80012
:1016F00085FF0CC050E040E066E070E0CE010E9443
:10170000DD038091E8008E778093E800DF91CF9130
:101710000895CF93DF93EC010E941705823011F0FA
:101720008430B9F580911F018823B1F18091320393
:1017300087FF32C060E282E08093E9008FEF9091F2
:10174000E800815095FD06C095ED9A95F1F70000EF
:101750008111F5CF8091E80085FF1BC080911F01AA
:1017600070E050E040E0811104C050E040E068E0EB
:1017700070E0CE010E94DD038091E8008E778093B7
:10178000E80080E2FE01A5E7B3E001900D928A95A2
:10179000E1F7DF91CF91089568E081E0CDCFEF923E
:1017A000FF920F931F93CF93DF930E94F10A0E9441
:1017B000EE0A0E94EB0A0E94E80A88E8E82EF12C63
:1017C0008FEF90E0F701918380830AE810E0F80141
:1017D00091838083CCE8D0E0998388830E94FA0AC1
:1017E000FFEF20E782E0F15020408040E1F700C0A9
:1017F00000000E94F70A9FEFE0E7F2E09150E0401E
:10180000F040E1F700C000000E94F40A2FEF80E7EB
:1018100092E0215080409040E1F700C000000E941B
:10182000EE0AEFEFF0E722E0E150F0402040E1F770
:1018300000C000000E94EB0A8FEF90E7E2E08150C9
:101840009040E040E1F700C000000E94E80A80916B
:1018500020038770FFEF8F9FC00111249595879516
:10186000959587959927F70191838083F801918356
:101870008083998388830E94F10A0E94EE0A0E9465
:10188000EB0ADF91CF911F910F91FF90EF900C9495
:10189000E80ACF9384E090E00E943928C82F81E2C3
:1018A00090E00E943928982F8C2FCF910895609155
:1018B0001C038CE090E00C944D28CF92DF92EF92C5
:1018C000FF926B017C010E94EC07B701A60188E042
:1018D00090E0FF90EF90DF90CF900C945F28809184
:1018E0005403833018F48F5F809354036091500346
:1018F0007091510380915203909153030C945D0CAD
:1019000080915403882319F081508093540360918F
:1019100050037091510380915203909153030C94A2
:101920005D0CE0E5F3E083E0808311828FEF82833A
:101930008383148260817181828193810C945D0C18
:101940006FEE7EEF90E080E00E946B2860E082E026
:1019500090E00E944D2860E083E090E00E944D28D6
:101960001092110310921203109213031092140399
:1019700060E084E090E00E944D2860E081E290E029
:101980000E944D2860E085E090E00E944D2860E0D4
:1019900086E090E00E944D286FEF87E090E00E9483
:1019A0004D2840E050E0BA0188E090E00E945F28B6
:1019B00060E08DE090E00E944D2840E050E0BA01E8
:1019C00088E190E00E945F2860E087E190E00E945B
:1019D0004D2840E050E0BA018CE190E00E945F2881
:1019E00060E080E290E00E944D2810922003109267
:1019F0002103109222031092230384E080618093DC
:101A000020034091200350912103609122037091A3
:101A100023038FE090E00E945F2840E050E0BA018D
:101A200083E190E00C945F28CF93C82F873070F546
:101A30008091130190911401892B89F564E670E07F
:101A400080E40E943E279093140180931301892B18
:101A5000D1F464E670E082E10E949A279093140129
:101A600080931301892B79F481E090E001C0880F05
:101A7000CA95EAF764E670E080950E949A279093F1
:101A8000140180931301CF910C94ED278A30B9F0A3
:101A900040F4883071F0893079F0209A2898CF91FD
:101AA00008958C3091F070F08D30B9F73E9A4698D9
:101AB000F6CF219A2998F3CF229A2A98F0CF239A29
:101AC0002B98EDCF529A5A98EACF539A5B98E7CF6A
:101AD00080E290E090931401809313018091410281
:101AE00081110EC00E94382781E0809341022FEFC0
:101AF00083ED90E3215080409040E1F700C000006A
:101B000064E670E080E40E943E2790931401809385
:101B10001301892B09F04EC064E670E080E00E945A
:101B20009A279093140180931301892B09F042C0E6
:101B300064E670E080E00E949A27909314018093FD
:101B40001301892BB9F564E670E08FE30E949A27B0
:101B50009093140180931301892B61F50E94ED2766
:101B600064E670E080E40E943E2790931401809325
:101B70001301892BF9F464E670E08CE00E949A2747
:101B80009093140180931301892BA1F464E670E013
:101B900080E00E949A279093140180931301892B6F
:101BA00049F464E670E08FE30E949A279093140151
:101BB000809313010E94ED27809113010895CF9324
:101BC000DF938091500380FD0BC0E5E4F2E01182C9
:101BD000108212821382349652E0E138F507B9F789
:101BE000C5E4D2E0FE01928120813181892F29173D
:101BF00008F4822F381708F4832F8383381B31832E
:101C0000281B2083981B9283349682E0E138F807E2
:101C100051F70E94382764E670E084E80E943E276E
:101C200064E670E088810E949A2764E670E089810A
:101C30000E949A2764E670E08A810E949A2764E6EF
:101C400070E08B810E949A27249692E0C138D907D0
:101C500039F70E94ED27579A3BB13F772BB12068A7
:101C60004FB7F89485E492E0FC015191CF0168E010
:101C70002BB9000000C057FF3BB9550F000000C052
:101C800000C000C03BB900C06A9591F7F2E081380E
:101C90009F0751F74FBF8FE391E00197F1F700C025
:101CA0000000DF91CF910895EF92FF920F931F9361
:101CB000CF93DF938C01C5E4D2E0F12CE12CF80145
:101CC00094816091520380915103F7E0EF16F10483
:101CD000FCF49923F9F09E01409153030E94FB0705
:101CE0002FEFE21AF20A24968FE0E816F10439F792
:101CF0000E94DF0DF801848190E0019681709927A0
:101D00008483DF91CF911F910F91FF90EF90089501
:101D1000992309F39E0140E0E1CFEF92FF921F93D8
:101D2000CF93DF93EC0185E4E82E82E0F82E10E0FB
:101D30008C8197014091530360915203810F0E945F
:101D4000FB071F5E84E0E80EF11C1F3F89F70E942D
:101D5000DF0D9A818C8190FF08C08F5F8C83DF91AB
:101D6000CF911F91FF90EF9008958150F7CFBF92D0
:101D7000CF92DF92EF92FF920F931F93CF93DF9357
:101D8000FC018281DD24DA9480FD02C0DD24D3943D
:101D900005E412E0D0E0C0E02FE0B22EF80111829D
:101DA00010821282138294E0E92EF12CC12C8091D2
:101DB00042028C0D80310CF43DC06B2D0E94F12746
:101DC000892F082E000C990B8C179D0791F4809198
:101DD00053038E9DA0018F9D500D1124559547955D
:101DE00055954795980160915203809151030E9447
:101DF000FB07CD0CF1E0EF1AF108C9F621960C5F54
:101E00001F4FCF30D10551F60E94DF0D8091420265
:101E100091E0D91215C0811111C08EE08093420269
:101E2000DF91CF911F910F91FF90EF90DF90CF90B6
:101E3000BF90089587FFC5CF815FC3CF8150EECF9C
:101E400090E00196BE010E941328E8CF0F931F93E4
:101E5000CF93DF93C5E4D2E0FE011182108212829B
:101E60001382349682E0E138F807B9F710E000E019
:101E700080914302082E000C990B081719078CF16A
:101E800080911201082E000C990B801791074CF1DC
:101E90009E014091530360915203809151030E942F
:101EA000FB070F5F1F4F24960F30110509F70E94A3
:101EB000DF0D8091110190914302980F909343029E
:101EC00020911201280F20931201121614F49E3053
:101ED0001CF0819580931101DF91CF911F910F919B
:101EE0000895198218821A821B82DBCFEF92FF922B
:101EF0000F931F93CF93DF93EC018C819D8101960B
:101F0000817099279D838C8385E4E82E82E0F82EEA
:101F100010E005E5812F86952C813D81820F932F5E
:101F2000911D817097014091530360915203809FEE
:101F3000802D11240E94FB071F5F84E0E80EF11C36
:101F40001F3041F7DF91CF911F910F91FF90EF90DC
:101F50000C94DF0D9091500390FF0DC0E5E4F2E08A
:101F60008183608342831382349692E0E138F907DB
:101F7000B9F70C94DF0D08950F931F93CF93DF9360
:101F800000D000D0CDB7DEB78C0180914402811122
:101F90000AC09E012F5F3F4F4FEF6FEF0E94FB077C
:101FA0008A8180934402F8016481613069F08091F4
:101FB000440240E0662361F040E0623011F4409159
:101FC000440280E060E004C06091440240E080E0B0
:101FD0000E94AA0FF801848190E0019663E070E00E
:101FE0000E94132884830F900F900F900F90DF9121
:101FF000CF911F910F910895CF93DF9300D000D020
:10200000CDB7DEB79091500390FF0AC09E012F5FBD
:102010003F4F0E94FB074B8169818A810E94AA0F72
:102020000F900F900F900F90DF91CF910895CF9365
:10203000DF93EC01EC81F0E0EF54FE4F4491E0E5DA
:10204000F3E0628181810E94FC0F8C818F5F8C8321
:10205000DF91CF910895CF93DF93EC01E0E5F3E0BA
:10206000438162818C810E94FC0F8C818F5F8C8305
:10207000DF91CF9108955F926F927F928F929F929E
:10208000AF92BF92CF92DF92EF92FF920F931F9386
:10209000CF93DF9300D000D0CDB7DEB7182F762EC8
:1020A000042F622E9091500390FF29C0E92FE695EE
:1020B000AE2FB0E0A05EBE4F8C91809355039E7F03
:1020C000923089F59E012F5F3F4F812F0E94FB07C1
:1020D0004B8169818A810E94AA0F109351037092EB
:1020E000520300935303662051F0609150037091A6
:1020F000510380915203909153030E945D0C0F9005
:102100000F900F900F90DF91CF911F910F91FF9043
:10211000EF90DF90CF90BF90AF909F908F907F9087
:102120006F905F900895823019F400915303D5CFDA
:10213000863019F410915103D0CF8930D9F3893109
:1021400061F6E9518E2F8170582EE695F0E0E45546
:10215000FE4FA590B490BB2485E4E82E82E0F82ED3
:10216000D12CC12C9FE0892E912CC601B4010E9474
:10217000FF27812F511013C0860F9701402F672D25
:102180000E94FB07CA0CDB1C84E0E80EF11C81E80E
:10219000E81682E0F80649F70E94DF0D9ECF861B05
:1021A000ECCFE0E5F3E043812CE0421B08F440E093
:1021B00021E0628181810C943B10E0E5F3E04381F2
:1021C0002CE0420F08F44FEF21E0628181810C94F2
:1021D0003B10E0E5F3E062812FEF621B08F460E062
:1021E00021E0438181810C943B10E0E5F3E06281C2
:1021F0002FEF620F08F46FEF21E0438181810C948F
:102200003B10E0E5F3E0818121E0438162818C5065
:102210000C943B10E0E5F3E0818121E04381628191
:10222000845F0C943B10E0E5F3E080818E7F808337
:1022300060817181828193810E945D0C10925603AE
:102240002FEF80E792E0215080409040E1F700C0FE
:1022500000000C94DF0DCF93873008F040C08091D0
:10226000130190911401C0E0892B71F464E670E0D1
:1022700080E40E943E279093140180931301892BE0
:1022800031F0C0E00E94ED278C2FCF91089564E6D5
:1022900070E083E10E949A279093140180931301C8
:1022A000892B79F764E670E081E40E943E279093E1
:1022B000140180931301892B21F784E690E00E949A
:1022C000C92797FF05C09093140180931301D9CFBC
:1022D000C82FC0951092140110921301D3CFCFB123
:1022E0008FB1869586958C73C3708C2BC82FC09543
:1022F000CBCF78941F921FB61F9211248F939F9378
:10230000AF93BF938091150390911603A09117038B
:10231000B09118030196A11DB11D809315039093F0
:102320001603A0931703B0931803BF91AF919F9129
:102330008F911F901FBE1F9018952FB7F894809112
:10234000150390911603A0911703B09118032FBFA6
:102350000895E0913903F0913A03309749F082E013
:10236000809357030480F581E02D87E593E009957C
:102370000E949D1190935F0380935E0308951092D5
:102380000E0310920D030E94800686E0E7E5F3E05D
:10239000DF011D928A95E9F710925D0310921903EF
:1023A0000E94A91190E080E00E94C50790E080E0C3
:1023B0000C94AF076093110370931203809313037F
:1023C000909314030C94BF1110920F0380911F017E
:1023D000E0E2F2E0882359F08091320387FF07C0E2
:1023E0008EE1DF011D928A95E9F70C94BF1186E01A
:1023F000F8CF1F93CF93DF93CDB7DEB7AA970FB671
:10240000F894DEBF0FBECDBF89E993E02091F100C3
:10241000FC012193CF01F3E0813A9F07B9F7809146
:102420009A03833009F46FC0B8F4813009F446C0D0
:10243000823009F4B0C08091E80083FF87C28091A8
:10244000990390919A039A3008F080C2E92FF0E046
:10245000E753F64D0C9427288A3009F48BC08B3053
:1024600009F46EC0893039F780919903813219F7E8
:1024700080919D0390919E030297E8F68091E80079
:10248000877F8093E8008091E80082FF37C09091B9
:10249000F3008091F200029729F48091F1008B7F84
:1024A000813021F48091F100809374038091E800E1
:1024B0008B778093E8000E940704BDCF8091990339
:1024C000813A09F0B8CF8091E800877F8093E800D7
:1024D00080919D0390919E03892B61F460E285E7D2
:1024E00093E070E00E94B9048091E8008B778093BC
:1024F000E800A1CF60E090E080E0F3CF8091970307
:102500008111C1CF98CF80919903813A09F093CF7F
:1025100080919D0390919E03892B09F08CCF80912F
:10252000E800877F8093E8008091E80080FFFCCF7F
:1025300080911F018093F1008091E8008E77B9CFE0
:1025400080919903813209F076CF80919D0390911B
:102550009E03892B09F06FCF8091E800877F8093DD
:10256000E8000E94070480919B0380931F010E9452
:10257000E41161CF80919903813209F05CCF8091A1
:10258000E800877F8093E8000E94070480919C0305
:102590008093730350CF80919903813A09F04BCF18
:1025A0008091E800877F8093E8008091E80080FFB9
:1025B000FCCF80917303BECF803899F0823809F048
:1025C000C5C180919D038F70873008F0BFC1809393
:1025D000E9008091EB0085FB882780F91092E900E3
:1025E00006C080919503909196039111826090911D
:1025F000E800977F9093E8008093F1001092F1003B
:102600008091E8008E779EC1882309F48CC18230C6
:1026100009F09CC180919B0381118FC180919D0322
:102620008F702FEF280F263008F090C18093E900BB
:102630002091EB0020FF81C1933031F48091EB00B9
:1026400080628093EB0079C19091EB009061909350
:10265000EB0021E030E001C0220F8A95EAF72093D9
:10266000EA001092EA008091EB008860EACF8111C5
:102670006DC110919B031F778091E3008078812BBF
:102680008093E3008091E800877F8093E8000E94B8
:1026900007048091E80080FFFCCF8091E300806810
:1026A0008093E30082E0111183E0809397034EC191
:1026B0008058823008F04AC180919B0390919C031E
:1026C0008C3D23E09207A1F583E08A838AE2898327
:1026D0004FB7F894DE01139620E03EE051E2E32F7D
:1026E000F0E050935700E49120FF03C0E295EF70B3
:1026F0003F5FEF708E2F90E0EA30C0F0C7968D9369
:102700009D932F5F243159F74FBF8091E800877F59
:102710008093E8006AE270E0CE0101960E94B9045D
:102720008091E8008B778093E80010C1C096E7CFD6
:1027300040919D0350919E03292F3327233031056B
:1027400009F445C078F52130310509F47BC08BE3ED
:1027500090E0E3E6F6E02230310509F0F7C0209181
:10276000E800277F2093E80020919F033091A00389
:102770008217930708F49C0140E02115310509F008
:1027800070C041116EC08091E80082FDC9CF809178
:102790009703882329F2853019F28091E80083FF9E
:1027A000F2CFBECF2132310509F440C022323105CB
:1027B00009F0CCC04115510509F44EC04130510516
:1027C00009F0C4C080EC90E0E3E6F5E0C8CF9927BB
:1027D00081309105D9F0009771F082309105F1F0C8
:1027E000039709F0B3C0E0EBF6E0E4918E2F90E0A0
:1027F000E0EBF6E007C0E8EDF6E0E4918E2F90E024
:10280000E8EDF6E0009709F4A1C0A9CFEEECF6E000
:10281000E4918E2F90E0EEECF6E0F4CFE6EBF6E0FC
:10282000E4918E2F90E0E6EBF6E0ECCF41155105F8
:1028300071F04130510509F089C089E090E0EEE87F
:10284000F6E08DCF82E190E0EEE9F6E088CF89E016
:1028500090E0E5E7F6E083CF80E490E0E3E2F6E0A5
:102860007ECF80919703882309F45ACF853009F4ED
:1028700057CF8091E80083FD53CF8091E80082FD1F
:1028800082CF8091E80080FF78CF9091F300809113
:10289000F2002115310519F08830910550F041E022
:1028A000089709F040E08091E8008E778093E80077
:1028B00064CF44914093F100319621503109019643
:1028C000E8CF803809F042C08091E800877F80938C
:1028D000E800809198038093F10092CE811136C078
:1028E00010919B03123090F58091E800877F8093D0
:1028F000E800109398030E940704112311F084E06C
:1029000005C08091E30087FDFACF81E080939703B3
:1029100042E061EC81E00E94260442E261EC82E048
:102920000E94260413C080919B03813079F481E0DA
:10293000933009F080E0809396031092E900809133
:10294000E800877F8093E8000E9407048091E800F8
:1029500083FF0AC08091E800877F8093E800809120
:10296000EB0080628093EB00AA960FB6F894DEBF6E
:102970000FBECDBFDF91CF911F9108951F920F928F
:102980000FB60F9211242F933F934F935F936F9342
:102990007F938F939F93AF93BF93CF93DF93EF93E7
:1029A000FF93D091E900DF708091EC00C82FC170D7
:1029B00080FDC0E81092E9008091F000877F80934D
:1029C000F00078940E94F9111092E9008091F000D3
:1029D00088608093F000CD2BCF70C093E900FF9109
:1029E000EF91DF91CF91BF91AF919F918F917F91A7
:1029F0006F915F914F913F912F910F900FBE0F906C
:102A00001F901895882309F459C0823871F40E94E8
:102A1000DB0781FF53C089E30E94F0060E94800615
:102A200089E30E94C5060C948006833859F40E94FD
:102A3000DB0780FF43C083E50E94F0060E9480060A
:102A400083E5EFCF843859F40E94DB0782FF36C05C
:102A500087E40E94F0060E94800687E4E2CF9CEFA4
:102A6000980F913AF0F290E2980F983088F48770BE
:102A700021E030E0A90102C0440F551F8A95E2F71A
:102A8000CA01809590910F03892380930F03CBCFC8
:102A90009BE5980F933020F490E080E00C94C507FC
:102AA00098E5980F973120F490E080E00C94AF0700
:102AB000803F20F00E9423050C94A91108958823DB
:102AC00009F47BC08238B9F40E94DB0781FD75C030
:102AD00089E30E94F0060E9480062FEF81EE94E0C9
:102AE000215080409040E1F700C0000089E30E943F
:102AF000C5060C9480068338A1F40E94DB0780FD94
:102B00005CC083E50E94F0060E9480062FEF81EEF4
:102B100094E0215080409040E1F700C0000083E540
:102B2000E6CF8438A1F40E94DB0782FD46C087E42B
:102B30000E94F0060E9480062FEF81EE94E0215063
:102B400080409040E1F700C0000087E4D0CF9CEFC8
:102B5000980F913A18F40E94F006CBCF90E2980FAC
:102B6000983068F4877021E030E001C0220F8A9528
:102B7000EAF780910F03822B80930F03BACFEBE526
:102B8000E80FE33038F4F0E0E351FE4F808190E04D
:102B90000C94C507E8E5E80FE73148F4F0E0EE0FE4
:102BA000FF1FE051FE4F808191810C94AF07803F61
:102BB00020F00E94E8050C94A9110895CF93C82F26
:102BC0000E945F15C93349F42FEF87EE93E021503F
:102BD00080409040E1F700C000008C2FCF910C9412
:102BE00002150F931F93CF93DF93C62FD42F022F7D
:102BF000FC0182818823A1F0609397020E949D11BD
:102C00009093820280938102C77081E001C0880F97
:102C1000CA95EAF7DF91CF911F910F910C94A50708
:102C200010919702161335C0809181029091820213
:102C30000E945006883C910560F5C0E2CD0F1D173B
:102C4000B9F080E2810F883040F4177081E001C054
:102C5000880F1A95EAF70E949A07C83048F481E075
:102C60009D2F977001C0880F9A95EAF70E94A507DB
:102C7000802F0E94DE15C83098F4D77081E001C023
:102C8000880FDA95EAF7DF91CF911F910F910C949D
:102C90009A07C77081E001C0880FCA95EAF7F3CFA1
:102CA000DF91CF911F910F91089560915003669528
:102CB00070E04BE050E086E091E00E94AC29892B67
:102CC00019F481E0809356030E949D1190934B0369
:102CD00080934A0308959091500390FF36C09170FD
:102CE000811129C0926090935003662351F0609146
:102CF00050037091510380915203909153030E94AD
:102D00005D0C60915003669570E04BE050E086E00A
:102D100091E00E94AC29892BA9F01092560381E022
:102D200080934D0320E040915303609152038091C2
:102D300051030C943B10853210F09864D4CF880F67
:102D4000982BD1CF0E945516EACF0895E0E5F3E025
:102D500080818160808360E086950C946B161F9261
:102D60000F920FB60F9211242F933F934F935F93BF
:102D70006F937F938F939F93AF93BF93EF93FF9343
:102D80008091E10082FF09C08091E20082FF05C0CE
:102D90008091E1008B7F8093E1008091DA0080FFD9
:102DA00024C08091D80080FF20C08091DA008E7FFF
:102DB0008093DA008091D90080FFA8C080E189BDAE
:102DC00082E189BD09B400FEFDCF81E080939703C5
:102DD00080917003811109C00E948D030E945804E4
:102DE0008091E20084608093E2008091E10080FFA6
:102DF00017C08091E20080FF13C08091E2008E7FB7
:102E00008093E2008091E20080618093E2008091F3
:102E1000D80080628093D80019BC85E08093970326
:102E20008091E10084FF36C08091E20084FF32C0CF
:102E300080E189BD82E189BD89B5982F917080FFBD
:102E4000FBCF8091D8008F7D8093D8008091E100E6
:102E50008F7E8093E1008091E2008F7E8093E2007C
:102E60008091E20081608093E20080919803882342
:102E700009F452C084E0809397030E94E4110E94F9
:102E8000DB07109272038091710381110E94A616D4
:102E90000E9455168091E10083FF27C08091E200D7
:102EA00083FF23C08091E100877F8093E10082E06F
:102EB00080939703109298038091E1008E7F809316
:102EC000E1008091E2008E7F8093E2008091E20039
:102ED00080618093E20042E060E080E00E9426048E
:102EE0008091F00088608093F000FF91EF91BF9196
:102EF000AF919F918F917F916F915F914F913F9192
:102F00002F910F900FBE0F901F90189519BC109223
:102F100097031092700369CF8091E30087FD93E0DF
:102F200090939703AACF61E00C946B1680915003A5
:102F30008695815009F484E261E00C946B168091CF
:102F4000500386958F5F853208F081E061E00C9434
:102F50006B169091500390FF07C09695981720F03C
:102F6000961710F40C949F170C949317CF92DF923E
:102F7000EF92FF92CF936B017C01C701AA27BB2779
:102F8000C0E10097A105B10519F4D701CB01C0E05C
:102F9000492F5A2F6B2F7727411551056105710570
:102FA00019F0C85FDB01CA01AC01BD01E4E0769510
:102FB000679557954795EA95D1F7411551056105F4
:102FC000710519F0CC5FDB01CA01AC01BD0132E033
:102FD00076956795579547953A95D1F741155105DF
:102FE0006105710519F0CE5FDB01CA01B695A795A1
:102FF00097958795892B8A2B8B2B09F0CF5F0E94A1
:10300000F10A0E94EE0A0E94EB0A0E94E80AEFEF22
:10301000EC0FE73008F064C0F0E0ED52F64D0C9490
:1030200027280E94FA0A8091950281110CC00E9403
:10303000A61660E081E00E946B1620E048EF60E792
:1030400080E00E943B10C701B601CF91FF90EF9046
:10305000DF90CF9008950E94F70A80919502811128
:10306000F2CF0E94A61660E081E00E946B1620E07D
:1030700042EF6CEC8BE4E5CF0E94FA0A0E94F70A5B
:10308000809195028111DFCF88E090E00E94412875
:1030900060935003709351038093520390935303B2
:1030A00060FF25C0862F81608093500386950E9423
:1030B00093178091500386950E94931721E04091C9
:1030C00053036091520380915103BBCF0E94FA0ACF
:1030D0000E94F40AD5CF0E94FA0A0E94F70AF8CF9C
:1030E000C13009F4A0CFC23009F4B7CFC9CF0E94D4
:1030F0001311A9CF0E94B61760933503709336035E
:1031000080933703909338030C94BF110F931F9350
:1031100041E050E060E070E004C0440F551F661FBE
:10312000771F8A95D2F7CB01BA016095709580958B
:10313000909500913503109136032091370330911B
:10314000380360237123822393231F910F910C94E2
:103150007A1890910C038095892380930C03282F73
:10316000277071F4282F082E000C330B92171306CA
:1031700039F08595859585950E94861810920C03E7
:1031800008950F931F9341E050E060E070E004C0A9
:10319000440F551F661F771F8A95D2F7809135031C
:1031A00090913603A0913703B09138038A019B01B7
:1031B000082B192B2A2B3B2BC901B8011F910F910A
:1031C0000C947A184F925F926F927F928F929F9297
:1031D000AF92BF92CF92DF92EF92FF920F931F9325
:1031E000CF93DF9300D000D00F92CDB7DEB76C0144
:1031F000FC0183819481892B39F01081F180812F2A
:103200008F218F3F09F00AC70F900F900F900F90FA
:103210000F90DF91CF911F910F91FF90EF90DF9072
:10322000CF90BF90AF909F908F907F906F905F9066
:103230004F9008950E94780A082F682F89819A81FB
:103240000E944D07E12FF0E026E0F29EE00DF11D17
:10325000112434E5039FE00DF11D1124EE0FFF1F33
:10326000EF54FD4F05911491F60182810930FDE57F
:103270001F0709F0F2C08823C9F18091200391E073
:10328000980F9770887F953008F4892B80932003DE
:103290008091200387702FEF829FC00111249595A4
:1032A00087959595879599279093890080938800B5
:1032B00090938B0080938A0090938D0080938C0074
:1032C00040912003509121036091220370912303C8
:1032D0008FE090E00E945F28609135037091360383
:1032E00080913703909138030E94B617F6018281CE
:1032F0008111CBC017FF18C1F6018281882309F420
:103300004DC080910F038093960210920F0380911D
:103310001C03813009F4E3C0882309F4DCC0823047
:1033200009F4EAC0843009F4EEC08FE39CE9019708
:10333000F1F700C000005801E894B7F84CE0E42E23
:10334000F12C95010E2C02C0369527950A94E2F7D0
:103350002F7087E290E031F0822F90E02A3008F061
:10336000D7C04D960E94DE1594E0E91AF108ECEF03
:10337000EE16EFEFFE0629F780911C03813009F469
:10338000CDC0882309F4C6C0823009F4C3C084309C
:1033900009F4C8C08091960280930F03F6019281D0
:1033A000992309F44CC6109297020230FCE51F07DE
:1033B00008F4E2C106312CE5120738F098012A5FC3
:1033C0003C452730310508F0D7C10E94490C909345
:1033D0003303809332030F303CE5130709F4ADC18A
:1033E00008F027C108309CE5190709F490C108F0DE
:1033F000FCC00430FCE51F0709F47DC108F0E2C001
:1034000002303CE5130709F46EC103301C4509F492
:103410006EC1609132031091330384E090E00E940A
:103420004D28612F81E290E00E944D280F900F906F
:103430000F900F900F90DF91CF911F910F91FF9000
:10344000EF90DF90CF90BF90AF909F908F907F9044
:103450006F905F904F900C94E4110A303DE5130794
:1034600051F00B309DE5190709F040CF882309F48E
:10347000CBCE81E0CDC1882309F4C6CE80919502E0
:1034800091E0892780939502BFCE033EFCE51F079C
:10349000F1F058F4013E3CE51307A1F0023E8CE543
:1034A000180709F027CF81E00AC0043E9CE5190700
:1034B00081F084E0053EECE51E0709F01BCF809308
:1034C0001C0302C010921C030E94570C13CF82E011
:1034D000F6CF83E0F4CF82EE0E945F1526CF83E023
:1034E0000E94900788E10E945F1588E10E94021502
:1034F00083E00E94850719CF82EE0E945F1587E561
:103500000E94DE1512CF86EE0E94DE1588E1F8CF0C
:10351000069728CF82EE0E9402153CCF8CE20E94D3
:10352000DE1538CF88E2FBCF033FFCE51F07D9F15A
:1035300040F5083D3CE5130791F1093D8CE518077E
:10354000F1F1073D9CE5190709F028CF26E241EE8D
:1035500061EEC6010F900F900F900F900F90DF91CA
:10356000CF911F910F91FF90EF90DF90CF90BF9080
:10357000AF909F908F907F906F905F904F900C9442
:10358000F115053FECE51E07B1F088F0063F2CE58C
:10359000120709F003CF27E245EE66EEDACF27E205
:1035A00045EE65EED6CF26E241EE60EED2CF27E2C1
:1035B00045EE64EECECF26E241EE62EECACF28E2BF
:1035C00041E0EFCF80913203806106309CE519071E
:1035D00009F447C080913203886007301C4508F425
:1035E00040C08091320380623CC00B30FCE51F0775
:1035F00009F49BC068F409303CE5130709F48BC05B
:103600000A301C4509F005CF809132038C6029C037
:10361000809132038B7F0D309CE5190711F1809169
:1036200032038D7F0E301C45E0F080913203877F9E
:1036300018C00A3FFCE51F0709F461C060F50231BC
:103640003CE5130709F481C078F400319CE51907C3
:1036500009F477C0809132038F7B01311C4509F05A
:10366000D8CE80933203D5CE0431FCE51F0709F490
:103670007AC008F470C005311C4509F0CACE8091AB
:10368000320382FB992790F921E0922790FB82F97F
:1036900090FB83F9E6CF0D3F8CE5180709F449C08C
:1036A00070F40B3FECE51E0771F1809133038E7FC0
:1036B0000C3F1C4509F0ADCE80933303AACE0F3FDB
:1036C0002CE5120709F44BC060F101151D4509F006
:1036D000A0CE80913303982F909591708E7F892B87
:1036E00090FB81F9E9CF809132038160BACF80915C
:1036F00032038260B6CF809132038460B2CF809172
:1037000033038160D9CF809133038260D5CF80911C
:1037100032038064A6CF0E94E41180913203806856
:10372000A0CF809133038360C7CF809132038E7F17
:1037300098CF809133038D7FBFCF809132038F7EEE
:1037400090CF809132038F7D8CCF0E94E4118091C5
:1037500032038F7786CF80913203837F82CF80912F
:1037600033038C7FA9CF0E94E41190913203892FFB
:1037700097FB87F9805875CF80910F030631ECE5F0
:103780001E0709F068C48A7A91E009F490E09093EA
:10379000980281111AC089E20E94F0060F900F90E2
:1037A0000F900F900F90DF91CF911F910F91FF908D
:1037B000EF90DF90CF90BF90AF909F908F907F90D1
:1037C0006F905F904F900C94800685E3E5CF85E382
:1037D0003FC48091500380FF17C00F900F900F904F
:1037E0000F900F90DF91CF911F910F91FF90EF906D
:1037F000DF90CF90BF90AF909F908F907F906F9011
:103800005F904F900C9413118160809350038695C4
:103810000F900F900F900F900F90DF91CF911F910D
:103820000F91FF90EF90DF90CF90BF90AF909F905F
:103830008F907F906F905F904F900C94931746E914
:1038400057E16FE977E10F900F900F900F900F9075
:10385000DF91CF911F910F91FF90EF90DF90CF906C
:10386000BF90AF909F908F907F906F905F904F90A0
:103870000C94E7074FE957E166E977E1E4CF41E0CF
:1038800051E16AE071E1DFCF4AE051E161E071E1CD
:10389000DACF49EE50E165EF70E1D5CF45EF50E169
:1038A00069EE70E1D0CF41ED50E16DED70E1CBCF2D
:1038B0004DED50E161ED70E1C6CF40E85CE06FE6B0
:1038C0007CE0C1CF4FE65CE060E87CE0BCCF65E027
:1038D00082E00F900F900F900F900F90DF91CF919B
:1038E0001F910F91FF90EF90DF90CF90BF90AF901E
:1038F0009F908F907F906F905F904F900C94A9173E
:1039000068E086E0E6CF6EE089E0E3CF64E18FE037
:10391000E0CF67E185E1DDCF88E17ACF62E289E13E
:10392000D8CF83E275CF0115FCE51F0709F443C02A
:103930000E3D1C4509F47CC0F601008111819923DC
:1039400009F48DC0C8010E94780AF82E682FC801BA
:103950000E944D07B8018F2D0E94D5088C01B82E0A
:10396000F601E580E2943FE0E322F280F11010924C
:103970000E0380910C03877079F0FF2069F080E2DC
:10398000800F883048F082E00E94A91880910C03D3
:103990008770AA24A3948111A12C912E92942FE0D8
:1039A0009222FBE0F91508F494C0E92DF0E0E6520C
:1039B000F64D0C9427280E94E4113FEF84E39CE02D
:1039C000315080409040E1F700C00000F89481E061
:1039D0008093E00080E28093D8001092C900EFE16C
:1039E000FEE43197F1F700C000001DBA10926800A4
:1039F0001CBC10BE1FBA10927A0010926E0010927A
:103A00006F0010927100109272001092C900109213
:103A1000BC0014B817B81AB81DB810BA1092BC0080
:103A200015B818B81BB81EB811BA0C94003FECCBEF
:103A30000F900F900F900F900F90DF91CF911F91EB
:103A40000F91FF90EF90DF90CF90BF90AF909F903D
:103A50008F907F906F905F904F900C94A00CC80156
:103A60000E942407F82E76CF212F2F70E22E107F90
:103A700019F0E29490EFE922FF20C9F0EE2069F0FE
:103A800080E2800F883010F0B1100BC080910F03DE
:103A9000E82AE0920F030E948006802F0E945F15A3
:103AA00018C080910E03E82AE0920E03F4CF802F15
:103AB0000E940215EE2069F0E094005E083010F0DC
:103AC000B1103CC080910F03E822E0920F030E94E6
:103AD0008006292D2850330B2430310510F40E9424
:103AE000DB07AA2009F490CB80910C0380FD8CCBDE
:103AF000F60112828595859585950E94C118C601AB
:103B00000E94E21880910C038595859585950F900C
:103B10000F900F900F900F90DF91CF911F910F9109
:103B2000FF90EF90DF90CF90BF90AF909F908F90DD
:103B30007F906F905F904F900C94861880910E0349
:103B4000E822E0920E03C3CF312F3F70832E107F07
:103B5000103219F0829480EF8822802FBB2041F030
:103B600091E0B91631F1FF2079F1EE2041F195CFC6
:103B7000FF2091F090911003892F8829E11003C054
:103B80000E94A507A6CFE1E0EE12FACF981709F43C
:103B9000A0CF809310039DCFE11006C00E947A064B
:103BA000882D0E949A0795CFF1E0EF1609F491CF86
:103BB000F5CFFF2031F021E02E1508F48ACF882DB3
:103BC000DFCFE11086CFECCFEE2051F3893349F4FB
:103BD0003FEF87EE93E0315080409040E1F700C026
:103BE0000000802F0E94021574CF812F8695869544
:103BF000837061F0813009F06CCFC8019370F110CF
:103C000002C090E080E00E94AF0763CFC8019370CC
:103C1000F11002C090E080E00E94C5075ACFFF205B
:103C200009F1053F99F0063FB9F0043F49F480914E
:103C3000990290919A02816090939A0280939902DE
:103C4000802F0E94E8050E94A91143CF809199021C
:103C500090919A028260F0CF8091990290919A029D
:103C60008460EACF053F89F0063FA9F0043F49F49C
:103C70008091990290919A028E7F90939A028093FC
:103C80009902802F0E942305DECF809199029091A6
:103C90009A028D7FF2CF8091990290919A028B7F48
:103CA000ECCF812F837009F066C0F11012CF802F06
:103CB000829586958770880F880F602F6F70462ECB
:103CC000512C712C612C082E04C0440C551C661C10
:103CD000771C0A94D2F740E050E0BA0104FF0FC00D
:103CE0004FE050E060E070E004C0440F551F661FD5
:103CF000771F8A95D2F74095509560957095812FE2
:103D0000869586958370823019F1D8F4009111035D
:103D1000109112032091130330911403813069F044
:103D20004429552966297729CB01BA0160237123DB
:103D3000822393230E94DA11CCCE402A512A622A90
:103D4000732ACB01BA016429752986299729F2CFF4
:103D500044295529662977290091110310911203EE
:103D60002091130330911403CB01BA01602771270E
:103D700082279327DFCF8695FF2011F0812F817056
:103D8000882309F4A6CE802F829586958770880FA8
:103D9000880F602F6F70462E512C712C612C082ECD
:103DA00004C0440C551C661C771C0A94D2F740E0F2
:103DB00050E0BA0104FF0FC04FE050E060E070E057
:103DC00004C0440F551F661F771F8A95D2F7409590
:103DD000509560957095812F869586958370823079
:103DE00019F1D8F40091350310913603209137036F
:103DF00030913803813069F04429552966297729A3
:103E0000CB01BA0160237123822393230E947A1885
:103E100060CE402A512A622A732ACB01BA01642952
:103E2000752986299729F2CF4429552966297729AA
:103E300000913503109136032091370330913803F8
:103E4000CB01BA016027712782279327DFCF1F702C
:103E5000FF2029F0812F0E94C118802F91CE802F42
:103E60000E949A07812F0E94861833CE802FE2EF9E
:103E7000BE1609F44EC0EB1578F0F0EFBF1619F13D
:103E800021EFB21609F43DC0FF2009F465C0E1102E
:103E900004CE812F8F713AC033EFB31609F43EC0C0
:103EA00094EFB912F1CFFF2009F44BC01F71812F9D
:103EB0000E94C118F8E01F9FC00111248360809305
:103EC0000C03812F23C0FF20B9F0E11002CE1F7137
:103ED00061E070E080E090E004C0660F771F881F0B
:103EE000991F1A95D2F7009135031091360320914E
:103EF000370330913803A6CFE1E0EE1508F4E9CDA1
:103F0000E6CF812F8F71FF2009F4ADCF0E94C11839
:103F1000E0CD812F8F71FF20C9F3A5CF60E070E065
:103F2000CB01FF2009F472CF1F7161E070E080E0E7
:103F300090E004C0660F771F881F991F1A95D2F76B
:103F400065CF81E00E94A91821E02E1508F0C1CDAF
:103F500082E00E94A918BDCDE11038CE812F8F716B
:103F600082CFE2EFBE16D1F1EB1500F1F0EFBF16F4
:103F700049F121EFB216D1F180919B02EE2009F4B4
:103F800041C0882341F080919C0291E08927809371
:103F90009C0210929B02802FF11080CD0E9402158E
:103FA00086E0F60111928A95E9F793CD34EFB316C6
:103FB000C1F0B31688F085EFB812DECFF11089CDCD
:103FC00081E007C0FF2009F484CD80919C0291E03C
:103FD000892780939C027DCD81E0F826F0929C0297
:103FE00078CDF11076CD10929C0273CDFF2039F080
:103FF00080919B02882349F310929B026ACDEE20A8
:1040000021F367CD882309F464CDF11062CD80914E
:104010009C0291E0892780939C02EECF85E0DE012F
:10402000119601900D928A95E1F7F601228189811E
:104030009A812111FFC80E942407082F03C9063165
:104040001C4509F079CC809198028111C0CB89E29E
:104050000E94C506A3CB8272F801E25CFC45E43104
:10406000F10508F060CCEA51F64D0C9427281F9317
:10407000CF93DF938091A202807FC1F480919F0251
:104080008823A1F08091D402C091A30260919D0287
:1040900070919E024091A0025091A102D62FD72389
:1040A000DA01A095B09516E0C81304C0DF91CF9156
:1040B0001F91089590E04115510511F0DF3F31F453
:1040C00001968770F1CF2A0F3B1F17C0189FF00190
:1040D000199FF00D1124EC55FD4F21812713F0CFCE
:1040E00020812613EDCF22812111EACF2381348153
:1040F0002417350740F3241B350B283C310500F706
:104100002091A2022F7020612093A20226E0289F16
:10411000F001299FF00D1124E755FD4F80818F702C
:10412000806180838DE992E00E94E218DF91CF9157
:104130001F910C947B07BF92CF92DF92EF92FF9278
:104140000F931F93CF93DF93CDB7DEB761970FB671
:10415000F894DEBF0FBECDBF8C0185E0F801DE0113
:104160001D9601900D928A95E1F7D8012C91119638
:104170003C9111971296EC9012978091A002909129
:10418000A102009709F463C140919D0250919E02E3
:10419000642F65236F3F09F45AC11396CD90DC90CC
:1041A000B0909F02BB2009F413C1C816D906C0F114
:1041B000F601E81BF90BCF01FF24F394883C91052D
:1041C00008F0F12C8091A202982F907FFF2009F433
:1041D000C1C091117DC0FE2C531327C0421325C0CE
:1041E000E11023C08F7080618093A2028DE992E07C
:1041F0000E94E2188091A202D80115968C938F2D0F
:1042000061960FB6F894DEBF0FBECDBFDF91CF91A0
:104210001F910F91FF90EF90DF90CF90BF90089586
:10422000809590958C0D9D1DC7CFCD2829F0822FAC
:1042300083238F3F09F035C180E0B82FB170DB2EAA
:1042400080FF3CC08091D4024091A30256E08413C9
:1042500015C02D873E878D859E850E94BA0A292F1D
:1042600022952F702230F0F0243018F59F70F1F075
:10427000F8019581907FD1F4D12C1EC090E0589F19
:10428000F001599FF00D1124EC55FD4F618136135B
:1042900006C06081261303C06281E6120FC001963A
:1042A0008770D5CF9F7011F0882331F3805E8830FE
:1042B00018F3C8010E94E218FD2CA1CFEE2009F4EA
:1042C0009ECF8091A20281608093A202F12C97CFB1
:1042D000531313C0421311C0E1100FC0D80115963B
:1042E0008C93C8010E94E21886E0F801ADE9B2E0C3
:1042F00001900D928A95E1F782CF2D873E878D85BB
:104300009E850E94C40A882309F1EE20F9F080916D
:10431000A202803270F020919D0230919E02388777
:104320002F831986DB86CA868C87CE0107960E946A
:10433000E21886E0F801ADE9B2E001900D928A95AD
:10434000E1F70E943720FF24F39459CFC8010E945F
:10435000E218F9CF91110CC08DE992E00E94E218A9
:1043600086E0EDE9F2E0DF011D928A95E9F747CF9B
:10437000531312C0421310C0E1100EC0F801858320
:10438000C8010E94E218EDE9F2E086E0DF011D922B
:104390008A95E9F7FB2C33CF2D873E878D859E8547
:1043A0000E94C40A882391F2EE2081F28091A20239
:1043B000803208F4BECF20919D0230919E023A8354
:1043C00029831B82DD82CC828E83CE010196AFCF02
:1043D000C816D90640F0C81AD90AB8ECCB16D104D1
:1043E00048F0F12CBDCF809590958C0D9D1D883C9B
:1043F0009105B8F7FE2CEE2009F4A8CF531316C090
:10440000421314C08091A20280FD6ECF982F907F3E
:1044100009F46ACFF8018583903F09F462CF982FA1
:10442000907F905F8F70892B85835BCF2D873E8730
:104430008D859E850E94C40A81117BCF8091A20246
:1044400081608093A202C8010E94E218D8CEEE20BB
:1044500009F47CCF2D873E878D859E850E94C40AF6
:10446000F82E882309F472CF86E0F801ADE9B2E0B6
:1044700001900D928A95E1F780919D0290919E02A4
:104480000E94BA0A92959F70963041F480919C02E6
:1044900091E0892780939C0290939B020E94372091
:1044A000AECE81E08E25C9CE1F93CF93DF93CDB7DB
:1044B000DEB767970FB6F894DEBF0FBECDBF6D8B2A
:1044C0007E8B8F8B8E899F89892BE1F0852F8423AA
:1044D0008F3F09F098C05FEF4FEF14C030919C02FE
:1044E000332309F44EC0E42FF0E036E0539FE00D93
:1044F000F11D1124EE0FFF1FEB5BFE4F4081518138
:10450000822B8C931A8A198A4B8B5C8B85E0FE0177
:104510007396DE011D9601900D928A95E1F786E073
:10452000FE013D96DE01179601900D928A95E1F706
:10453000CE0107960E949B20811112C086E0FE01E9
:104540003796DE01119601900D928A95E1F78A85E2
:104550009B85892B29F08F81988589238F3FC9F509
:1045600016E08091D4029091A302891320C067962F
:104570000FB6F894DEBF0FBECDBFDF91CF911F9174
:10458000089580958223BDCF96E0929FD001939F9E
:10459000B00D1124AC55BD4FFE01319601900D9226
:1045A0009A95E1F78093A3020E947B07D9CF819F60
:1045B000C00111248C559D4F0E949B208823B9F285
:1045C0008091D40290E00196877099278093D4025D
:1045D000C8CF2091A30230E0C901019687709927C6
:1045E0004091D4024817190679F60E94E4111092FE
:1045F000A3021092D40286E0EDE9F2E0DF011D9201
:104600008A95E9F7ADCF81E090E0042E01C0880FD4
:104610000A94EAF7A52FB0E0A957BD4F2C913D8928
:1046200031115CCF322F38235BCF8F929F92AF92A4
:10463000BF92CF92DF92EF92FF920F931F93CF938F
:10464000DF938091130190911401892B91F0809157
:1046500040028F5F8093400281110BC00E94680D61
:1046600090E09093140180931301892B11F40E9420
:10467000CF0B04E213E07801C0E0912C37E0C32EA9
:10468000CC0E8C2F0E94140D8C2D0E94140D8C2F9B
:104690000E942B11D7019D917D01D12C891729F002
:1046A000FD0131978083DD24D3948C2D0E942B1142
:1046B000F7019681891709F466C0868381E08D2908
:1046C000982A0E94FD0ACF5FC730C1F60E949D1153
:1046D0006AEF70E00E94FF27882ED0913F02DD2311
:1046E00009F45DC010923F02E0911A03F0911B03A0
:1046F0007F012EE0E20EF11C40E0CBEF2AEFC22E4C
:10470000D12C51915B3F81F0652F70E0282D392F1E
:104710008517D8F1261B370B2E313105E4F19F01A7
:1047200021503109D901CC93EE16FF0651F7409381
:104730003F02911002C0411134C010923E02A0917C
:104740001A03B0911B0320913F02ECE3F3E04AE42B
:1047500053E090E06191E80139918E01631751F0C7
:104760006C916B3FD1F48C93BF0161507109EB01E7
:10477000388321E011964E175F0761F720933F02BF
:1047800090933E0212C080E09ACFD601A61BB70BD1
:104790002A0F3B1FC1CF4D2FC7CF91E0EBCF911018
:1047A000CCCF90913E029111C8CF892DDF91CF914E
:1047B0001F910F91FF90EF90DF90CF90BF90AF903F
:1047C0009F908F900895CDB7DEB72A970FB6F894D3
:1047D000DEBF0FBECDBF84B7877F84BF0FB6F8940E
:1047E000A8958091600088618093600010926000BD
:1047F0000FBE80E890E00FB6F8948093610090932C
:1048000061000FBE85B7806885BF85B7806885BFAA
:104810000E948D030E9458048091E200846080937E
:10482000E2007894809197038823A1F01091E90029
:104830001F709091EC00892F817090FD80E8182BFB
:104840001092E9008091E80083FD0E94F9111F7029
:104850001093E90082E084BD93E095BD9AEF97BD87
:1048600080936E000E94680D90E0909314018093F5
:1048700013010E94FD0A0E940C0BA4E2B3E01AE4AB
:10488000E12E13E0F12EECE3F3E011921D92EE160F
:10489000FF06D9F78EE090E00E94812880931A03EA
:1048A00090931B03FC010E962BEF21938E179F070D
:1048B000E1F790E080E00E9447288F3E9E4F11F084
:1048C0000E94A00C8CE090E00E94392890E0B0E0BB
:1048D000A0E080931C0390931D03A0931E03B0934C
:1048E0001F0389EA8093800089E0809381002498E7
:1048F0002C983F988AB18F7C8AB96E98479A8BB171
:1049000080638BB9769A8FE090E00E944128609393
:1049100020037093210380932203909323036770F5
:104920004FEF649FB0011124759567957595679554
:104930007727709389006093880070938B00609351
:104940008A0070938D0060938C000E94CF0B90E0E2
:1049500080E00E9447288F3E9E4F11F00E94A00CDD
:1049600082E090E00E943928809361030E94490C04
:10497000909333038093320383E090E00E943928C0
:10498000682F70E090E080E00E94DA11809134039B
:10499000811136C090E080E00E9447288F3E9E4FF4
:1049A00021F00E94A00C0E94910C88E090E00E94EF
:1049B0004128609350037093510380935203909366
:1049C00053036E7F71F40E94910C88E090E00E9486
:1049D0004128609350037093510380935203909346
:1049E00053030E94EC07109256038091500380FFFE
:1049F00004C060E086950E946B1681E080933403CA
:104A0000609135037091360380913703909138039C
:104A10000E94B61785E191E090933A0380933903A1
:104A2000F1E5CF2EF5E0DF2E80919703853009F474
:104A30009EC00E941523E2E6F3E0ACE3B3E010E091
:104A400000E0302F8D912191281709F4FCC090E0EF
:104A5000BB24B3942827422F4B2109F4EFC099833C
:104A60003A838B2191E009F490E09B830E949D1191
:104A70008160782F9D838C8349815A816B818D81E0
:104A80000E945422F801EE59FC4F8081B826B08272
:104A900080915603882309F441C080915503E09129
:104AA0005003E695E81BE0934C03823009F0E2C026
:104AB000F0E0E15AFA4FE4910E2F10E0E7E1AE2E5C
:104AC000E0E1BE2E80914D03882389F010924D03C2
:104AD0000E949D11980120953095820F931F90930D
:104AE0004B0380934A0310924F0310924E03809120
:104AF0004A0390914B030E9450068017910770F073
:104B0000E0914A03F0914B030E0F1F1F10934B03CC
:104B100000934A038AE493E0F501099580915E03CE
:104B200090915F030E9450069C0190915D03992330
:104B300019F02431310578F020915903B0905A03CF
:104B400000915B0310915C032111EDC08B2D802B34
:104B5000812B09F062C10E94DB07909160038917E5
:104B600009F462CF0E94DB07809360035DCF8091E0
:104B70009703843009F441C010923B0388E190E030
:104B800020E40FB6F894A895809360000FBE2093A0
:104B900060001092560380917203811117C081E06A
:104BA0008093720380915003982F917090937103BA
:104BB0008E7F809350032FEF40E782E021504040EA
:104BC0008040E1F700C000000E94DF0D83B7817FC5
:104BD000846083BF83B7816083BF7894889583B7EF
:104BE0008E7F83BF0FB6F894A8958091600088618E
:104BF00080936000109260000FBE8091960388231E
:104C000009F412CF0E94680D90E0909314018093F4
:104C100013010E94FD0A0E940C0BECE3F3E01192D9
:104C2000EE16FF06E1F70E941523ECE3F3E0819115
:104C30008111DDC0EE16FF06D1F7F6CE9F5FBB0CEB
:104C4000963009F008CF0F5F1F4F0E30110509F0A5
:104C5000F8CE8FEF8E838F8318860E949D1181601E
:104C6000782F9A8789874E815F8168858A850E941F
:104C700054220ECF863059F4F0E0E45AFA4FE49112
:104C80000E2F10E07BE2A72E70E1B72E1BCF8930EC
:104C900061F4E695F0E0E75AFA4FE4910E2F10E048
:104CA0006DE8A62E6EE0B62E0DCF8F3061F4E6953E
:104CB000F0E0EA5AFA4FE4910E2F10E057EBA52EE0
:104CC0005EE0B52EFFCE853159F4F0E0ED5AFA4F93
:104CD000E4910E2F10E046E2A42E4FE0B42EF2CE67
:104CE00008EE13E096E7A92E9FE0B92E883109F46B
:104CF000E9CE833241F4F601059114913CEBA32EE9
:104D00003FE0B32EDFCE04EF11E024E5A22E2EE02B
:104D1000B22E843209F4D6CE00ED17E08FE1A82E32
:104D200085E0B82ECFCE9F3F19F09F5F90935D0333
:104D3000121624F40E94C4058093590380915903EC
:104D400087FF05C00E94C4058195809359031B14F9
:104D500024F40E94C40580935A0380915A0387FF6C
:104D600005C00E94C405819580935A033091590370
:104D70003323A1F020915A03222381F045EB340321
:104D8000C0011124992359F19093590345EB240351
:104D900090011124332339F130935A03101624F46F
:104DA0000E94A20580935B0380915B0387FF05C08F
:104DB0000E94A205819580935B03111624F40E9442
:104DC000A20580935C0380915C0387FF05C00E946D
:104DD000A205819580935C030E94A911BCCE81E05D
:104DE00080935903D3CF81E080935A03D7CF80E1DA
:104DF00089BD82E189BD09B400FEFDCF8091D80054
:104E00008F7D8093D8008091E00082608093E000E5
:104E10008091E00081FDFCCF07CE9F3F09F085CF58
:104E200096CF1F921FB61F9211248F939F93AF931B
:104E3000BF9380913B03811113C080911503909122
:104E40001603A0911703B09118034196A11DB11D3F
:104E50008093150390931603A0931703B093180340
:104E6000BF91AF919F918F911F901FBE1F9018957A
:104E70001092B9008CE08093B8000895EF92FF92F1
:104E80000F931F93CF93DF93182FEB011092BC0069
:104E900084EA8093BC000E949D117C018091BC003B
:104EA00087FF27C08091B900887F883029F08091E2
:104EB000B900887F8031D9F51093BB0084E88093D6
:104EC000BC000E949D118C018091BC0087FF24C012
:104ED0002091B900287F90E080E02831B1F081E096
:104EE00090E0203411F490E080E091958195910953
:104EF0000CC0CF3FDC0791F20E949D118E199F09D3
:104F00008C179D0758F28EEF9FEFDF91CF911F9185
:104F10000F91FF90EF900895CF3FDC07A9F20E9418
:104F20009D11801B910B8C179D0770F2ECCF8FEFBA
:104F30009FEFEBCF0F931F93CF93DF93EB01809302
:104F4000BB0084E88093BC000E949D118C0180917D
:104F5000BC0087FF11C02091B900287F81E090E05C
:104F6000283211F490E080E0919581959109DF91CC
:104F7000CF911F910F910895CF3FDC0741F30E941D
:104F80009D11801B910B8C179D0708F38EEF9FEFEF
:104F9000EECF0F931F93CF93DF93EC0184E88093C0
:104FA000BC000E949D118C018091BC0087FF08C04D
:104FB0008091BB0090E0DF91CF911F910F910895F8
:104FC000CF3FDC0789F30E949D11801B910B8C174A
:104FD0009D0750F38EEF9FEFEECF84E98093BC00E6
:104FE000089587FB082E062687FD819567FD61954C
:104FF0000E942D280EF4919507FC81950895AA1B17
:10500000BB1B51E107C0AA1FBB1FA617B70710F0B3
:10501000A61BB70B881F991F5A95A9F780959095E5
:10502000BC01CD01089597FB072E16F4009407D01C
:1050300077FD09D00E94FF2707FC05D03EF490952C
:1050400081959F4F0895709561957F4F0895EE0F5C
:10505000FF1F0590F491E02D0994991B79E004C09D
:10506000991F961708F0961B881F7A95C9F78095A7
:105070000895F999FECF92BD81BDF89A992780B520
:105080000895A6E1B0E044E050E00C947328A8E154
:10509000B0E042E050E00C947328262FF999FECF3F
:1050A00092BD81BDF89A019700B4021639F01FBA7B
:1050B00020BD0FB6F894FA9AF99A0FBE0895039698
:1050C000272F0E944E280E944D28252F0E944E28EF
:1050D000242F0C944E280196272F0E944E280C94C2
:1050E0004D28DC01CB01FC01F999FECF06C0F2BDD1
:1050F000E1BDF89A319600B40D9241505040B8F796
:1051000008950F931F93CF93DF938230910510F48E
:1051100082E090E0E091A303F091A40330E020E06E
:10512000B0E0A0E0309799F42115310509F447C0AB
:10513000281B390B24303105C0F58A819B8161150C
:10514000710571F1FB0193838283FE0111C04081DF
:1051500051810281138148175907F8F04817590700
:1051600099F4109761F012960C93129713961C9372
:105170003296CF01DF91CF911F910F910895009347
:10518000A3031093A403F4CF2115310519F042179E
:10519000530718F49A01BD01EF01DF01F801C2CFF6
:1051A0009093A4038093A303D0CFFE01E20FF31FDB
:1051B000819391932250310939832883DACF20914A
:1051C000A1033091A203232B41F4209102013091DD
:1051D00003013093A2032093A10320910001309199
:1051E00001012115310541F42DB73EB7409104016D
:1051F00050910501241B350B4091A1035091A2034E
:105200004217530708F0B5CF241B350B2817390771
:1052100008F4AFCFBC016E5F7F4F2617370708F445
:10522000A8CF640F751F7093A2036093A103FA01C6
:10523000819391939ECFCF93DF930097E9F0FC0188
:10524000329713821282C091A303D091A403DE018E
:1052500030E020E02097A1F420813181820F931F5C
:105260002091A1033091A2032817390709F067C0E4
:10527000F093A203E093A103DF91CF910895DA01A7
:10528000AE17BF0708F040C012964D915C9113977E
:105290009D014115510599F7D9011396FC93EE93A1
:1052A00012974D915D91A40FB51FEA17FB0779F492
:1052B000808191810296840F951FD90111969C934C
:1052C0008E938281938113969C938E931297B0E074
:1052D000A0E08A819B810097B9F5FE0181919191AF
:1052E000E80FF91F8091A1039091A2038E179F07E9
:1052F00019F6109761F51092A4031092A303D093AE
:10530000A203C093A103B8CFB383A283408151818C
:10531000840F951FA817B90771F44E5F5F4F8D91E9
:105320009C911197480F591F5183408312968D917C
:105330009C91938382832115310509F0ADCFF093C1
:10534000A403E093A30398CFDE01EC01C2CF139630
:105350001C921E921297D3CFFC014150504030F066
:1053600001900616D1F73197CF0108958827992724
:105370000895F894FFCFD30AD30ADC0ADC0ADE0AC8
:10538000DC0ADC0ADC0AD30AD30AE30ADC0ADC0AF8
:10539000E30ADC120413A6140413A61437135813DB
:1053A000A61461146E1411182B1868183C1866188E
:1053B0006D186B18341D341DA41DA41DF51D0F1E82
:1053C000B11F691D511E271F361F361FE91B1F1CE9
:1053D0003A1C3F1C441C491C4E1C531C581C5D1C91
:1053E000621C391A671C801C831C861C891C8C1C3F
:0453F0008E1C911C62
:1053F4000000A503200001191A1B1C1D1E1F2021DB
:1054040022010220002005890B5E0B580B460B017C
:105414000001020202020606060909090909090F28
:105424000F0F0F0F0F151515181919191919191927
:105434001919192324000D010D020D030D040D0586
:105444000D000C010C020C030C040C050C000B01E8
:105454000B020B030B040B050B000A010A020A03DF
:105464000A040A050A0009010902090309040905D5
:1054740009000801080208030804080508000701D8
:1054840007020703070407050700060106020603CF
:1054940006040605060005010502050305040505C5
:1054A40005000401040204030404040504000301C8
:1054B40003020303030403050300020102020203BF
:1054C40002040205020001010102010301040105B5
:1054D4000100000100020003000400050081828332
:1054E400E200E900EA00B500B600B700CD00830190
:1054F400CC008A0192019401210223022402250294
:0E550400260227022A02B300B4006F007000D6
:00000001FF
